:020000021000EC
:108000000040002041B7010089B701008BB7010093
:108010000000000000000000000000000000000060
:108020000000000000000000000000008DB701000B
:1080300000000000000000008FB7010091B70100B0
:1080400093B7010093B7010093B7010093B7010004
:1080500093B701000000000093B7010093B701003F
:1080600093B7010093B7010093B7010093B70100E4
:1080700093B7010093B7010093B7010093B70100D4
:1080800093B701003983010093B7010093B7010052
:108090002584010093B70100A1A4010093B701005A
:1080A00093B7010093B7010000000000000000003A
:1080B00000000000000000000000000000000000C0
:1080C000164B002B00D1144B9D46402292029A1A67
:1080D000924600218B460F461348144A121A00F0AC
:1080E00067F80F4B002B00D098470E4B002B00D0A9
:1080F00098470020002104000D000D48002802D000
:108100000C4800E000BF00F02DF82000290002F02C
:10811000E3F900F011F8C04600000800004000201C
:10812000000000000000000070200020B42A0020A1
:108130000000000000000000084B10B5041C002BDC
:1081400002D0002100E000BF054B1868836A002BB5
:1081500000D09847201C00F033F8C0460000000013
:1081600098CE010070B50E4B0E4D0024ED1AAD10E7
:108170001E1CAC4204D0A300F35898470134F8E722
:1081800004F07CFE084B094D0024ED1AAD101E1CB6
:10819000AC4204D0A300F35898470134F8E770BD0F
:1081A000702000207020002070200020702000200F
:1081B000031C8218934202D019700133FAE770470A
:1081C000FEE7C04610B5041C82B00B1C00920649A5
:1081D000221C002003F0B0FABFF34F8F034A044B78
:1081E000DA60BFF34F8FFEE79CCE01000400FA0572
:1081F00000ED00E082B00190019B002B14D0019BA8
:108200000A48013B01930138C046C046C046C046FB
:10821000C046C046C046C046C046C046C046C0462E
:10822000F1D1019B002BEAD102B07047E7030000B7
:108230001B4B1B78012B00D070471A4B1B681A0789
:10824000FAD1194AF02312681A4003D0102A01D03B
:10825000302A03D1154A12681A4210D0124AF0236C
:1082600012681A40402AE7D1104A12681A42E3D134
:10827000C12380220121DB00D205D150DCE70C4A6A
:108280000C4B1A600C4B802212021A60044B1B78B4
:10829000012BD1D1034B1B681A07DFD0CCE7C046B6
:1082A000E00F00F0E40F00F0E80F00F0EC0F00F03A
:1082B000DFFF07C004050040186C00401A4A802107
:1082C00089028023D150194B8022D2215202890089
:1082D0005A50C22189005A5001225A602F20013879
:1082E000C046C046C046C046C046C046C046C0465E
:1082F000C046C046C046C046F1D19A600C4B002231
:108300001A602F200138C046C046C046C046C0464D
:10831000C046C046C046C046C046C046C046F1D171
:10832000044B1A707047C04600E100E000100140A5
:108330007020002098200020F0B5304BA0210022B2
:108340004900474680B45A50A22149005A50A421FE
:1083500049005A50A62149005A50802149005A50DC
:10836000822149005A50264A1468601C37D0254A99
:1083700000269D58244B254A1B68254FED1A2D02D7
:108380002D0A904601E0621C1AD0E3001B193868E0
:108390009B00C3185A68AA4212D84046AD1AB618B4
:1083A0001C6A9A69D9690368002B1BD0101C984776
:1083B0000028E8D000220021FFF704FF621CE4D16E
:1083C000144B15491A780B789A420ED0134A9B0029
:1083D0009E5080218023124A49035B00D15004BC87
:1083E0009046F0BD081C9047CDE7531CDBB2022B32
:1083F00001D00B70EAE700230B70E7E700100140A3
:108400008820002004050000702000207420002037
:10841000782000208420002085200020902000204B
:1084200000E100E0F0B55F4656464D464446F0B4E4
:10843000BA48BB4BBB4900681A7809788BB00690E4
:10844000914200D134E20132D2B2022A00D1FDE1E0
:108450001A70B54B9200D2580699039253181B021A
:10846000AE4A1B0A136001230793111CAF4EB04B99
:10847000B04FB14C36681B78B0483F680968247823
:10848000026804960293019709910894B1460596F3
:108490009B460020351C5B46013BDBB29B46FF2B15
:1084A00072D05F460199FE008E1974783378A44625
:1084B0006345F0D05C007768E418B1780133DBB233
:1084C000E4003C19C91A4F1EB941277849420B40B4
:1084D000022F15D0032F10D1291C6C1C0DD0CC00FD
:1084E0006118890051180875096A4C1CF7D1757814
:1084F0008946AC460C1C251CDAE72C1C251CD7E74A
:108500006168CF007C18A400A418BA46277DA04655
:108510002C1C002FEFD06F1C14D0A94200D183E196
:108520009C462F1C0B1C009502E0A34210D0271C78
:10853000F900C919890051180C6A651CF5D1009D14
:1085400063462C1C454628757778251CBC46AFE74A
:108550000C1C009D191C6346A4468F4200D14FE1BC
:1085600054466718BF00D7192C1C396A7D686746C6
:1085700039624F1CE6D0CC006118890051184C6854
:1085800065194D604C46DDE7684F4E4605953E60E7
:1085900009986249089D684C079E08602570002E66
:1085A00000D055E105980499431A5A1E9341DBB255
:1085B000069301235B429C465E4E604F36685748E7
:1085C00004965D4C594E3D68076824783668BB4672
:1085D0000021059F039400968946029B013BDBB274
:1085E0000293FF2B00D1ADE0049CDB00E418A2460F
:1085F000644601343FD06646F4006444A4002C195C
:10860000216AA368E068E0468C465E469A1B4C49A6
:108610001202120A8A4263D81018606001214E4685
:1086200001204942A660E660207521627A1C6DD067
:10863000F900C91989006918626848683E1C8242BD
:1086400008D855E0D900C9188900691848689042CF
:1086500059D21E1C0B6A121A581CF3D12362F30064
:108660009E19B600AE19414662603B1C31621F1C68
:1086700064460134BFD15646337872789A42ACD002
:108680005A0056465446D21864680133B178D20075
:10869000DBB2A218337099423CD051683B1C88462B
:1086A00011780129E3D14346DC004444A4002C198D
:1086B000217D3B1C0029DAD19368A360D068E0607B
:1086C000166926615269E261039A002A9DD000234F
:1086D0005E46A1609A1B1A491202120A8A429BD96D
:1086E000F31A1B021B0A83420AD2C01A606095E784
:1086F000821A4A6043462762444600941F1CB7E72B
:108700004B4663608AE7801A4860A7E743460093B8
:108710001F1CADE748463070BFE7C0467020002000
:108720008420002085200020902000208820002028
:108730007C200020802000208C2000207820002039
:10874000FEFF7F0000986349059A0860974200D1B8
:108750006EE07C1C00D1BAE05F4DFA002B68D7199F
:10876000BF00DB195C685D4A5D4B5E4E9A5831680C
:108770005D4D571A3F023F0A28780337B846002854
:1087800021D18020D1264002B6009851C126B600E2
:108790009851C02755488026B6027F00C651066012
:1087A000012018602F200138C046C046C046C04690
:1087B000C046C046C046C046C046C046C046C04689
:1087C000F1D101232B704346A34200D2231C5B1836
:1087D0001B024349A8201B0AC0000B503F489B1AAC
:1087E00009581B02891A0902090A03311B0A994216
:1087F00022D9802180233D4A89025B00D1501BE0B1
:10880000E900491989005118271C096A4C1C02D03B
:1088100089460C1CA9E6324C0125A56089460C1C32
:10882000002108950991A0E647464146C446ECE779
:10883000069B002B00D08CE72D4C002323700BB03F
:108840003CBC90469946A246AB46F0BD0022FFE5EF
:10885000214A012317685B424A46059D00240026F1
:10886000181CBC461BE0EB005B199B006344596875
:10887000039FB94222D87A1A03921F6A1A696418B0
:108880005E601E75B846002A07D006991862671800
:108890003F023F0A9F60DA60281C454642466B1C37
:1088A000E1D10C4C0595012584462260069583E6AE
:1088B00000240025039407950A49D7E5C91B84467F
:1088C00004485960012102600595069174E6FFF79E
:1088D000F5FCB1E788200020782000200405000086
:1088E00000100140702000209820002000E100E0EE
:1088F0008C200020F0B557464E464546E0B48146F0
:108900008A4690461F1C0720990704D01CBC90463D
:108910009946A246F0BD002BF8D0FFF7CFFC314BB3
:10892000089A50461A60304B514618702F4B1F6002
:10893000002955D05146CA0053189B003C1C002505
:10894000002624352670267524349D42F9D15244E0
:108950009200274BBF1803221A70264B391C1F6048
:1089600043465A0042441831D200796089188A1867
:10897000F9607A610121204A494211601F4A0023AF
:1089800013701F4A3B7013707B703B727B723B7499
:108990007B7480221B4BC021404652034900B870B3
:1089A000B872B8745A50C52189005858FF24A043A2
:1089B000C024204358501A60A121134AC9004846D8
:1089C0005050C42189005C5810482040C024240223
:1089D000204358500E4B0020D2580E4B1A6095E79A
:1089E0000022B4E774200020862000207820002098
:1089F0007C2000208020002088200020842000206F
:108A00008520002000E100E000100140FF00FFFF92
:108A10000405000070200020F0B5174B94461C6838
:108A2000002C1CD0002A18D0002816D0134B1E781A
:108A3000002E10D02378002B13D02434002307E01D
:108A4000271C2434251C243D2D781A1C002D0AD007
:108A50000133B342F4DB0420F0BD0720FCE708201B
:108A6000FAE7271C002201233B7063467970BB6143
:108A700002600020F0E7C046782000208620002019
:108A8000F0B5474680B43D4B1C68002C47D03C4BAA
:108A90001D780723854203D8181C04BC9046F0BDFE
:108AA0000429F9D9C3001B189B00E4182578082372
:108AB000012DF1D16378012B33D000239846314B3F
:108AC0005C681023E405E40D2FD12F4C2668F618BE
:108AD0007378B4785D1C2C1B671EBC416442254032
:108AE0003478AC421FD05C00E4187368E4001C19B1
:108AF0000423002CD0D0012323706060234B244832
:108B00004746C358E160A360626180218023214A07
:108B10005B00490327617570D1500023BCE708232F
:108B2000BAE78846CBE70423B6E7103CE3B25DB270
:108B3000002D13DBAD08C035164BAD00EB580325F7
:108B40002C40E400E3401C06A40FE4B20023012CF7
:108B5000BBD00823032CB8D01023B6E70F241C4049
:108B6000083C0D4DA408A4006419032564682B403B
:108B7000AB40DC40E4B2A409E7E7C046782000201F
:108B80008620002000ED00E0802000200405000089
:108B90000010014000E100E018ED00E030B5334B7B
:108BA0001A68002A35D0324B19780723814201D840
:108BB000181C30BDC3001B189B009A5C0823012AB7
:108BC000F6D12C4B5A681023D205D20D25D12A4A52
:108BD0001168C9184B788C785A1C141B651EAC415F
:108BE000644222400C78944215D05C00E4184B6833
:108BF000E4001C190423002CDAD0022323706060E7
:108C000080234A7080211D4A5B004903D150002314
:108C1000CEE70823CCE70423CAE7103AD1B24BB21F
:108C2000002B13DB9908C031144B8900CB5803216A
:108C30000A40D200D3401A06920FD2B20023012A72
:108C4000C5D00823032AC2D01023C0E70F230B404E
:108C5000083B0B4A9B089B009B185A68032319404A
:108C60009940CA40D2B29209E7E7C0467820002076
:108C70008620002000ED00E08020002000E100E0E0
:108C800018ED00E029DF704728DF7047F8B54F4640
:108C90004646C0B46F4C814625788846161C1F1C7A
:108CA000002D15D1131C3B4319D1022323704046DC
:108CB000FFF7EAFF002835D1002E00D0C6E0002FD4
:108CC00000D0B8E049460B78042B00D0AEE049E074
:108CD000062D00D9ADE0604BAD005B599F460123E6
:108CE00023705E4B586980235B05411C00D1A5E0D1
:108CF00019690904090C02F04DFD80235B051D690B
:108D000019691A69431E2804000C09045843090C08
:108D1000434692B259439208FFF7B4FF002801D1AD
:108D2000022323700CBC90469946F8BD4B4B586902
:108D300080235B05411C00D186E019690904090CF8
:108D400002F028FD80235B051A691969431E10048F
:108D5000000C09045843090C02F01CFDFFF794FFB6
:108D60000028DFD107232370DCE780235B05186927
:108D700093000004000C484318184B465A881969A0
:108D80009208FFF77FFF0028CCD13E43EAD00623AC
:108D90002370C7E780235B051D69304A2D045069A5
:108DA0002D0C4D43411C4DD019690904090C02F0EA
:108DB000F1FC80235B05196901380904090C414362
:108DC000321C281CFFF75EFF0028ABD1002F32D1E8
:108DD0004A461378042B29D1D9E780235B051A6909
:108DE00041461204120C4A434588B60052199219A2
:108DF00090461A4A5069421C22D019690904090C8C
:108E000002F0C8FC80235B05196901380904090CCC
:108E100041437619711840463A1CFFF733FF00288A
:108E200000D07FE749460B78042BB0D00523237090
:108E300078E7032076E70423237073E758695CE73B
:108E40005869DFE75869B4E758697BE70323237063
:108E500068E7C04681210020CCCE01000010001040
:108E6000F8B5384D2B789A00D3189B00EB181C1DD1
:108E70001B79E668042B38D0052B14D00F20022B69
:108E800000D0F8BD304B20691B8862889B02C11856
:108E9000A088D21A8619F0182C4B9A423AD8920818
:108EA000FFF7F0FE1CE080277F053969301C0904BC
:108EB000090C02F06FFCA388011C9E193A693B69FA
:108EC0001204120C1B04481C4A431B0C43436088C9
:108ED000B21A86199B1B92089B08201CFFF7D6FE2E
:108EE0000028CED10123AB70CBE7A268184913014B
:108EF000CB18198958895B68B34210D0022A12D066
:108F000080277F053969301C0904090C02F042FCF6
:108F1000011CD3E780225200FFF7B4FEE0E7414393
:108F200063889942EAD180235B051969301C0904E2
:108F3000090C02F02FFC044B1B88C018FFF7A4FE9D
:108F4000CEE7C0469C20002082210020FF030000C5
:108F500068210020F0B544465F4656464D46F0B4C1
:108F6000634C85B0A378002B27D0624B0022197880
:108F7000A270082928D0022844D003281DD12378C4
:108F80009A00D3189B00E418251D6B780133DBB2DF
:108F90006B70032B00D19DE0FFF762FF021E0CD027
:108FA00011280AD0AB68201C21796C881E012B691E
:108FB0000094514C0C303459A04705B03CBC90464D
:108FC0009946A246AB46F0BD022800D04B4B1A7022
:108FD0006378002BF1D0FFF743FF021EEDD011287C
:108FE000EBD023789900CB189B00E418E76821792F
:108FF0006369201CE4883E0100943F4C0C303459D6
:10900000A047DAE72578A8004619B600A619029607
:10901000321C3B4E834637880120B8468044B24616
:109020004646B6B25746B0463E80029E0432367976
:10903000022E42D0052E3AD0042E3AD1072906D06E
:10904000568840468002B04228DB002926D1002104
:109050001970534619806378013B63706B1CDBB257
:10906000092B01D92B1C093B237096681369101C2E
:10907000029F5288397900921F4A36010830B6584B
:109080000022B047584643199B00E31800220120F4
:109090001A71DA80D8601A615A611A816378002BDC
:1090A00000D18AE7A378002B00D086E793E7072951
:1090B000CDD000210029F1D0C9E750884746BF0232
:1090C0000390B846039E4146FF17C00FB142474187
:1090D000391CEFE7A9686A880E012B692179009293
:1090E000054A201C0C30B4580D22A04765E7C04645
:1090F0009C20002081210020682100208021002068
:109100008221002010B5554C00222C2022544020F2
:1091100000232254422023524420235250495420F9
:10912000225456200B802352012158202270627055
:10913000A2702271E38023616361238122766383BD
:109140006362A362A383E385A363E3632386E3648B
:109150002365E16021626163A164E16523526820B7
:1091600022546A2023526C2023527C2022547E20D9
:10917000235284202150882023508C20235080208B
:1091800023529020225492202352982021509C2038
:109190002350A020235094202352A4202254A62000
:1091A0002352AC202150B0202350B4202350A820BB
:1091B0002352B8202254BA22A352C022A150C42262
:1091C000A350C822A350BC22A352264A236663663A
:1091D0006367A36721671380234B5869431C36D00C
:1091E00080235B0519690904090C02F0D3FA802178
:1091F00049050A69831E1004000C58431B4B0022CA
:1092000018601B4B1A601A819A815A81194B0822E7
:109210001A70154B5869431C1DD009690904090CC3
:1092200002F0B8FA80235B051A691969431E10041D
:10923000000C09045843090C02F0ACFAFFF724FDB6
:10924000002803D10C4A0123A370137010BD8023A2
:109250005B055869CBE74869E4E7C0469C200020DD
:109260008221002078210020001000107C210020A5
:10927000682100208121002080210020074B1A78DE
:109280000823002A01D1181C7047002804D0044B81
:109290005B7803600023F6E70E23F4E780210020CB
:1092A0009C20002073DF7047F8B5051E00D195E0C3
:1092B000002900D192E04A48002404704948026025
:1092C000494A1360494A131C51C951C391C991C3FA
:1092D000C0C9C0C3D068002800D074E00023137256
:1092E0009369002B00D176E0D469002C00D172E0A4
:1092F000002107223E48FEF75BFF3E4B3E4A3F4EB1
:109300001A603F4A00219A60301C3022FEF750FF5D
:109310002B782A1C3370AB781032B370EB78F37073
:109320006B787370331C103381CA81C3331C0833CC
:10933000103A12CA12C3331C1833083281CA81C3CF
:10934000696A002911D02F4B2F4C7362696A9C60A7
:109350000A881A8088889880002806D000238F68A1
:10936000FA5CE25401338342F9D1AA6A002A14D08C
:10937000264B2748B362AC6A9860A18899802288FE
:109380001A800023002905D0A768FA5CC254013373
:109390008B42F9D12C23EA5CF254286A002806D0CB
:1093A0001C4B33622A6A5188598012881A80696876
:1093B000002903D0184B73606D687560301C002164
:1093C00000F02CFBF8BD1169002900D186E79369F4
:1093D000002B00D088E70023137589E70E20F1E702
:1093E0008C220020C0210020E8210020F421002050
:1093F000EC210020382200201422002084210020AB
:109400006C220020B4210020C421002094220020DE
:10941000482200209022002034220020F0B5474648
:1094200080B4784C88B0207001A8FFF727FF00288F
:1094300005D10199002906D0734B01221A7008B09A
:1094400004BC9046F0BD714A0021101C90460722D2
:10945000FEF7AEFE6E4E7378002B33D123786D4F3E
:10946000012B59D0327A002A01D1022B6FD0327DE4
:10947000002A01D1032B6FD03A68002A03D0023BA7
:10948000012B00D888E0644B00221A7002AD18222C
:10949000281C0021FEF78CFE227800232B706B60C5
:1094A0002B72EB60022A1AD0032A62D0012A58D00C
:1094B000002A29D13B68002B02D0584A10789847DF
:1094C0000020BCE72378534F012BCBD13A68002A08
:1094D00020D0534907200B7090472378C0E7F368EA
:1094E00032692B824F4B6A821A79002A02D11A7B89
:1094F000002A06D03278002A03D04B4A1278002A7C
:1095000070D0464B02221A70281CFFF7CBFE0028B1
:10951000D0D094E7424B1A707378002B12D041469A
:109520004B78002B4BD18B78002B48D1CB78002B7C
:1095300045D10B79002B42D14B79002B3FD18B7950
:10954000002B3CD102232370327A002A94D10323CA
:109550002370327D002A8FD1304A0023237013708C
:109560008AE76B822B822D4B414669602A701A7004
:10957000CAE7F2692B4BB1696A821A792982002AFB
:1095800019D03278002A03D0274A1278002A18D03E
:10959000224B03221A70B7E73378002B00D172E711
:1095A000214B1B78002B00D06DE71B4B01210620BF
:1095B000197090476AE71A7B002AE2D1E8E7012395
:1095C0005AE71A480222EB60002104232A72C37072
:1095D00000F024FA002800D031E7104B05221A7061
:1095E000227865E711480222042600212A72EB60E6
:1095F000C67000F013FA002800D020E7074B22784D
:109600001E7055E78C2200208D220020EC210020C6
:10961000F4210020C021002069220020A022002087
:109620006822002038220020E4210020842100202C
:1096300008B50388112B35D0192B06D0102B00D07C
:1096400008BD82882A4B1A80FAE78379002BF7D16C
:10965000284A1278022A40D0032A35D0012AEFD1B5
:10966000254A1178002912D0244B587800283CD183
:109670009878002839D1D878002836D11879002870
:1096800033D15879002830D19B79002B2DD102207D
:10969000FFF7C4FE0028D3D0194B1B68002BCFD096
:1096A0009847CDE7174B00221A70174B5A68124B98
:1096B0001A700F4B82881B889A42C1D10120FFF794
:1096C000ADFE0028E8D1BBE7104A1370104B1B68B1
:1096D000002BB5D000209847B2E70C4B03201A703E
:1096E000FFF79CFE0028D7D1AAE701391170E5E702
:1096F000602000208C2200206A220020EC21002023
:10970000E8210020E4210020F4210020A0220020F4
:10971000C0210020F0B5474680B4023888B0012847
:1097200003D87B4C2378002B03D108B004BC9046AF
:10973000F0BD002368462370FFF7A0FD002820D16C
:109740000099002923D001232370EEE7EB682A69F2
:109750002382704B62821A79002A02D11A7B002A76
:1097600007D02A78002A04D06B4A1278002A00D148
:10977000BDE06A4B02221A70201CFFF793FD0028FF
:109780003CD0674B1B68002BCFD09847CDE7654A8C
:109790000021101C90460722FEF70AFD624D634E21
:1097A0006B78002B31D13378614F012B3CD02A7A72
:1097B000002A01D1022B52D02A7D002A01D1032B8D
:1097C00052D03A68002A02D0023B012B6FD9594B84
:1097D00000221A7002AC1822201C0021FEF7E8FCBF
:1097E00032780023237063602372E360022AADD0D5
:1097F000032A3ED0012A52D0002ABDD13B68002B5B
:1098000093D0464A107898478FE73378484F012B1A
:10981000CDD13A68002A05D0474907200B70904700
:109820003378C2E7444B1A706B78002B12D0414654
:109830004B78002B48D18B78002B45D1CB78002B6F
:1098400042D10B79002B3FD14B79002B3CD18B7946
:10985000002B39D1022333702A7A002AB1D1032395
:1098600033702A7D002AACD12C4A00233370137048
:10987000A7E7EA69274BA96962821A792182002A3F
:1098800002D11A7B002A06D02A78002A03D0224A65
:109890001278002A1AD0214B03221A706CE76382D7
:1098A00023821E4B4146616022701A7064E72B7858
:1098B000002B8CD0184B1B78002B88D11D4B01211D
:1098C00006201970904785E701237AE71B4802229A
:1098D000E360002104232272C37000F09FF8002887
:1098E00000D04EE70D4B05221A70327884E71348FA
:1098F0000222042500212272E360C57000F08EF878
:10990000002800D03DE7054B32781D7074E7C04653
:109910008D22002038220020E4210020A0220020F7
:10992000E8210020EC210020F42100208C220020DE
:10993000C02100206922002068220020842100200C
:1099400072DF704779DF70477DDF704765DF7047F2
:10995000F0B55F4656464D464446F0B483B00C9F82
:109960008A46994639780388051C161C8B46002BBD
:109970003CD000229046002403E02B880134A3420F
:109980002ADD6B68A1005918042201A803F05EFAD1
:1099900001A869460022FFF7D9FF002827D16946B0
:1099A0000B78B342E9D14246002A27D03A7893197E
:1099B0001F2B30DC4A4401A86946FFF7C7FF002887
:1099C00015D169463A780B780134D3183B702B884F
:1099D00001229046A342D4DC4346002B06D03B78BC
:1099E0005946013B4A465B1A5A441370002003B0A3
:1099F0003CBC90469946A246AB46F0BD3B789A19CE
:109A00001D2A08DC9A1C01333A70DBB252464946E3
:109A1000CA543A78CEE70C20E9E7C046F0B556467E
:109A20004D4644465F46F0B49BB00023041C04AD91
:109A300068460E1C2B700376002C00D1BFE0E37843
:109A4000590700D4A3E02378002B00D0E4E0A278EB
:109A5000002A00D00AE1E278002A00D09FE0626884
:109A6000002A0FD012781C2B00DDD3E00AAF0221B0
:109A7000F954591CC9B20A207854D91C0233DBB2FC
:109A80002970FA542389002B00D0BAE1238A002BD5
:109A900000D046E2238B002B00D05BE2236A002B30
:109AA00040D02A780C20971DBA461F2F70D81988ED
:109AB000072005296CD97D4F7F18BFB2B8467C4F6F
:109AC000BC46B84564D95F88B846052F60D9774F42
:109AD000B946C1444F46BFB2674559D9754FB942DF
:109AE00003D0B84501D0414552D80AAF0520B8543B
:109AF000901CC0B228708146501CC1B2122078540C
:109B0000198804328C4649467818614601706146CE
:109B1000090A41705B88D2B2BF183B7052461B0ADB
:109B20007B702A70606A8046002828D001792B78E3
:109B30008F1C9A1CFFB2D7190C201F2F28DC0AAFEC
:109B40000331F954591CD2B2C9B2FF2078542A709B
:109B500040460188BA1804331170DBB2090A51700B
:109B60002B708288002A0AD0816800290FD0F8184B
:109B700003F06CF941468A882B78D3182B702C237C
:109B8000E15C0AAF002900D06FE1B94619E0072077
:109B90001BB03CBC90469946A246AB46F0BD0AAF0E
:109BA0000221F954991CC9B2581C8846C0B201213F
:109BB00003333954DBB240462B703A544FE700244C
:109BC000A146002E00D128E2F478002CDFD16B46AC
:109BD0001C763378002B00D0D5E1B378002B00D071
:109BE000FBE1F378002B0FD012A880460222611C03
:109BF00002554746A21C0120C9B203347854D2B2A0
:109C0000E4B268460476BB547368002B63D01B78BB
:109C10001C2C51DD0C20BBE763780C201D2BB7DC1E
:109C200012AA68461D232A30111C9046171C138067
:109C3000FFF78AFE0028ABD12378022B00D157E230
:109C40006378002B02D008221D2B02D940460388DE
:109C50000822DBB2591C0AAF3970694629310A70F3
:109C60002A7802329B18DBB22B70F0E60C201B2BFB
:109C700000DD8DE712A9081C8846FFF763FE002867
:109C800000D085E72B780AAF0322FA545A1CD2B2CF
:109C90001921B9544046991C0288C9B27F1804336F
:109CA0003A70DBB2120A7A702B70D4E67FF3FFFFB2
:109CB0007DF30000FFFF000012A902220A5588462A
:109CC000621CD2B247460A21B954E21C02346846EB
:109CD000E4B202763B553389002B00D0AAE0338AE8
:109CE000002B00D003E1338B002B00D099E1336AC5
:109CF000002B46D06846027E0C20911D1F2900D9FA
:109D000046E71C880720052C00D841E7DA4F3F19A9
:109D1000BFB2BC46D94FBA46BC4500D838E75F88C9
:109D2000BC46052F00D833E7D34FB846E04447463A
:109D3000BFB2574500D82BE7D14FBC4204D0BC4539
:109D400002D0644500D923E712AC0520A054A046F8
:109D5000541CE4B2901CC0B26F46A4464446387608
:109D60006444122727701C8840440470240A4470FD
:109D70005888131DDBB2434418706F46000A5870B0
:109D80003976746A002C2DD068462179037E8F1CA9
:109D90009A1CFFB2D7190C201F2F00DDF8E612AF76
:109DA0000331F954D2B26846591C0276C9B2FF2079
:109DB00078542188B846424411700433090A51701E
:109DC000DBB269460B76A288002A0BD0A168002975
:109DD00000D1DCE6F81803F039F8A2886C46237E3F
:109DE000D31823762C23F05C002800D034E1684699
:109DF00012A9037E8846424629784846FFF7A0FD0F
:109E0000C6E6082109190AAF8846081C00950221F8
:109E100002223B1CFFF79CFD002800D0B8E600950D
:109E20004046062110223B1CFFF792FD002800D17E
:109E30002CE6ADE612A9341C884606AA0834009226
:109E4000201C022102224346FFF782FD002800D099
:109E50009EE606AB0093201C062110224346FFF726
:109E600077FD002800D13AE792E6A36A002B00D1E3
:109E70008DE600228C46904616212C2228788A46B0
:109E8000934600E0A36A41464A00424492009B1870
:109E900099469B88421C03333B54831CDBB2D2B2ED
:109EA0005146B9542B7049460A88FB1804301A7081
:109EB000C0B2120A5A7028708A88002A0FD08968A6
:109EC000002900D163E6381802F0C0FF4A462B781B
:109ED0009088C0185B46E35CC0B228709C4643463D
:109EE0000133DBB298466345CCD3B94669E6341CEE
:109EF00006A8103412AF00900321201C02223B1C44
:109F0000FFF726FD002800D042E606A90091201C9C
:109F1000072110223B1CFFF71BFD002800D1E2E6C1
:109F200036E6102212190AAF9046101C0095032144
:109F300002223B1CFFF70CFD002800D028E600950C
:109F40004046072110223B1CFFF702FD002800D1EC
:109F5000A0E51DE618231B190AAF9846181C0095AA
:109F6000142102223B1CFFF7F3FC002800D00FE66F
:109F700000954046152110223B1CFFF7E9FC002804
:109F800000D18BE504E673780C201D2B00DDFFE586
:109F900008AC68461D234A30211C2380FFF7D4FCFF
:109FA000002800D0F4E53378022B00D1A6E07378C6
:109FB000002B02D008221D2B01D9238808226846D5
:109FC000047EDBB2591C023412AF39701B1969468A
:109FD0004931DCB20A700476FFE50C201B2C00DD51
:109FE000D6E508A8FFF7AEFC002800D0D0E569460A
:109FF0000C7E12AA032313559046631CDBB2192270
:10A000004746FA54A31C0A8CDBB2434404341A704A
:10A01000E4B2120A5A700C76E3E56A46137E002217
:10A02000EAE612AA341C904606AB18340093201CB2
:10A03000142102224346FFF78BFC002800D0A7E53D
:10A0400006AF0097201C152110224346FFF780FC25
:10A05000002800D14BE69BE5B26A002A00D196E5C4
:10A060006F463B7E0390162112A82C2700248046C1
:10A070008A46BB4607E0C0467FF3FFFF7DF3000042
:10A08000FFFF0000B26A67003F19BF00D719BA8806
:10A0900040460332C2549A1CD2B269460A76591C11
:10A0A000C9B28C46604451460170398842441170EF
:10A0B0000433090A5170DBB26A461376BA88002A63
:10A0C00010D0B968002900D161E54344181C02F0A2
:10A0D000BDFEBA886F463B7E5846D318305CDBB273
:10A0E0003B76039001340399E4B28C42CAD382E6F2
:10A0F0003B8809221D2B00D8ABE5A1E52388092266
:10A100001D2B00D85BE752E775DF704776DF70479D
:10A110007ADF70477BDF704710B5194B82B0188823
:10A12000184B984215D0184B184C1A780132D2B2FD
:10A130001A70217B91420ED200221A70237C002BD0
:10A1400013D16369002B04D0002269460A70684667
:10A15000984702B010BD0E49FFF7D6FF0028F8D08F
:10A16000A369002BF5D09847F3E73B21FFF7CEFF1B
:10A170000028E6D0A369002BE3D09847E1E7C0466A
:10A18000D0220020FFFF0000AC220020B0220020DF
:10A19000D422002030B51D4B1D4A5B88118883B046
:10A1A000994210D852889A420DD31A4B5B69002B02
:10A1B00004D0012269460A7068469847164C00236D
:10A1C000237003B030BD144C2378002B09D0114B01
:10A1D0005B69002BF3D0002269460A7068469847F5
:10A1E000EDE70E4B0B4D1B78002B0CD0A9680C4BE8
:10A1F00000221868FEF744FC0028E0D0AB69002B71
:10A20000DDD09847DBE76968F1E7C046A42200206B
:10A21000D4220020B0220020A1220020AC22002065
:10A22000CC22002070B51649021C0B1C70CA70C3EA
:10A2300032CA32C312681A600168124B00221A70C7
:10A24000002916D0104C0822201C02F0FFFD201C13
:10A25000FFF75EFF00280BD10C4B012252421A80FF
:10A260000B4B00221A700B4800210B4AFEF7D4FB5F
:10A2700070BD0548FFF74EFF0028EDD0F8E7C04657
:10A28000B0220020A1220020D4220020D0220020D1
:10A29000AC220020CC22002019A1010010B50388B7
:10A2A000112B36D022D9122B18D0502B1DD1224C75
:10A2B000C288E3899A4218D1C38B022B15D120237F
:10A2C000C35CDA070FD41D4B1868FEF767FC002843
:10A2D0000BD0A369002B08D0984706E0811D082207
:10A2E000174802F0B3FDFFF755FF10BD102BFCD14E
:10A2F0008288144B011C1A8016310822104802F083
:10A30000A5FD114B00221A700B4BDB89002BECD101
:10A31000E9E70C4B012252421A800B4B00221A70C3
:10A32000064B1868FEF73AFC0028DED0024B9B690A
:10A33000002BDAD09847D8E7B0220020CC220020AA
:10A34000A4220020D0220020AC2200202EDF704763
:10A3500051DF704710DF704761DF704708B5081C98
:10A36000111C00E000BF08BDF0B556464D465F46E3
:10A370004446F0B429492A4E0A6889465542554157
:10A38000284B83B0196898464B424B41264ADBB2B2
:10A39000EDB29A469346002D0DD0514600291CD0AF
:10A3A00003B03CBC90469946A246AB46F0BD002D9A
:10A3B000F6D10122924668466C46FFF7C9FF052890
:10A3C00029D000281DD000210022FDF7FBFE5146B8
:10A3D000002903D0002DE3D1EDE76C465A463768DB
:10A3E0001388381C69462380FFF7B6FF0528DED0A6
:10A3F00000280BD000210022FDF7E4FE00239A463E
:10A40000C9E74B4600981B689847E0E74346381C6D
:10A410001B689847F2E70125D9E7C046E4220020EF
:10A42000E0220020E8220020DE22002038B5041CB3
:10A430000720002901D08D0700D038BD09480160F0
:10A440000949201C0A80094A09491360FFF782FF65
:10A450000028F2D1074B012216201A70FFF776FF71
:10A46000EBE7C046E0220020DE220020EC220020A4
:10A470005DA30100DC220020002803D0024B1860FD
:10A48000002070470E20FCE7E8220020002803D0BF
:10A49000024B1860002070470E20FCE7E4220020E9
:10A4A00008B50A4B1B68002B08D09847002800D13C
:10A4B00008BD00210022FDF785FEF9E7044B1B785B
:10A4C000002BF5D0FFF750FFF2E7C046EC2200204A
:10A4D000DC22002048DF704700B5022383B00093E0
:10A4E000002100220023002001F0C2F80749084A99
:10A4F000002001F021F900F063F8FFF7EBFF0028DE
:10A50000FBD000210022FDF75DFEF6E7E8CE01005A
:10A51000FCCE010076DF704777DF704778DF704749
:10A520007ADF70477CDF704760DF70477047C04656
:10A5300008B500210022FDF745FE08BD10B5041C3A
:10A54000FEF708FD201CFFF7E5F810BD08B50378FD
:10A55000002B00D008BD064B3B211888FFF7DAFF1F
:10A560000028F7D000210022FDF72CFEF2E7C046BC
:10A570006220002010B5041CFFF790FE2388102BEA
:10A5800013D0112B08D101220C4B524202201A8009
:10A59000FEF744FF00280CD1201CFFF749F800F01B
:10A5A00061FC211C00F050FB10BDA288034B1A80F7
:10A5B000F2E700210022FDF705FEEDE76220002012
:10A5C000F0B5474680B4934E98B09349321C0020B2
:10A5D00001F0B2F80E20914948220023FFF726FF30
:10A5E000002800D011E10CAC0822201C0021FDF74E
:10A5F000DFFD227801231343201C2370FFF794FF13
:10A60000002800D0FCE08648FFF736FF002800D085
:10A61000F1E08448FFF73AFF002803D00021002230
:10A62000FDF7D0FD002300930020062105227E4B7C
:10A63000FEF760F9002803D000210022FDF7C2FDDB
:10A64000FEF760FD002800D0D0E004AD2A780F238B
:10A6500001219A430A43754F134010221343381CBB
:10A660002B7002F004FC391C82B2281CFFF75AFF41
:10A67000002800D0B5E0C0204000FFF74FFF0028C1
:10A6800000D0A9E0201C00210822FDF791FD102335
:10A690002380502363800423A380C8235B00201CF5
:10A6A000E380FFF73DFF002800D090E00020FFF797
:10A6B00033FF002803D000210022FDF783FD6F4601
:10A6C0000023FB7203AB181C59490422984602F080
:10A6D000BDFB00213022201CFDF76AFD0223237000
:10A6E00001230B37A37006222382201C434600213E
:10A6F000E27067606361FFF791F9002862D100237F
:10A70000AB6004936B606B61AB61EB6101232B72F7
:10A7100096235B00EB6096239B002B61201C291C79
:10A72000444A0023FEF7C0FD002803D00021002288
:10A73000FDF748FD00F07CFB1C22201C0021FDF7EA
:10A7400037FD0023A02292020C9323743A4B6260DF
:10A75000F02212036361394BA260201C0322227392
:10A76000A361FFF75FFD002803D000210022FDF761
:10A7700029FD0220FEF752FE002803D0002100220E
:10A78000FDF720FD321C2E49002000F0D5FF00F01F
:10A7900065FD321C2B49002000F0CEFF00F0EAFEE0
:10A7A000321C2949002000F0C7FF00F0B9F8274902
:10A7B000321C002000F0C0FF00F072FE18B004BC94
:10A7C0009046F0BD00210022FDF7FCFC97E7002138
:10A7D0000022FDF7F7FC69E700210022FDF7F2FCFB
:10A7E00050E700210022FDF7EDFC44E700210022A4
:10A7F000FDF7E8FC29E700210022FDF7E3FC08E76C
:10A8000000210022FDF7DEFCFDE600210022FDF71D
:10A81000D9FCE8E61CCF010008CF0100A8250020E4
:10A8200075A501003DA50100F0220020FCCE01002D
:10A8300004CF01002DA501004DA5010031A50100A7
:10A8400024CF01003CCF01004CCF01005CCF0100C0
:10A8500008B51149002000F06FFF00F03DFC031C1B
:10A860001E339BB2822B0CD80C4B80B218800C4B41
:10A8700000B200229B5E834204DD00F0F3FE00285C
:10A8800007D008BD00F0EEFE0028FAD000F0C0FEB0
:10A89000F7E700F093FEF4E770CF0100642000209A
:10A8A000F425002010B584B001AC00210C22201C3E
:10A8B000FDF77EFC002323700223074923720198D1
:10A8C000A268616000F00EFA002803D00021002287
:10A8D000FDF778FC04B010BD6420002010B584B0F2
:10A8E00001AC00210C22201CFDF762FC0123237027
:10A8F0000223074923720198A268616000F0F2F90F
:10A90000002803D000210022FDF75CFC04B010BD3C
:10A91000F4250020014B18807047C046F425002024
:10A9200010B51D49002000F007FF00F0D5FB031C07
:10A930001E339BB2822B0CD8184B80B21880184B58
:10A9400000B200229B5E83421CDD00F08BFE0028DB
:10A950001FD0144C0121201C134AFEF75DF800287B
:10A9600003D000210022FDF72DFCF02120684903CF
:10A970000022FEF785F8002803D000210022FDF711
:10A9800021FC10BD00F06EFE0028E2D000F040FE79
:10A99000DFE700F013FEDCE770CF01006420002049
:10A9A000F4250020F025002051A80100A0DF704709
:10A9B000A2DF7047A6DF704763DF7047F0B54D46F2
:10A9C00044465F465646F0B4041C91B00D1C0E2060
:10A9D000002C11D01022724909A8904602F036FAD4
:10A9E0002D6801235B42A561A38209A8211CFFF702
:10A9F000E3FF071E07D0381C11B03CBC90469946B7
:10AA0000A246AB46F0BD237804ADAB7080239B001B
:10AA1000A21C0120291C2B80FFF7C8FF071EEAD1CA
:10AA200023786A4693725F4B0021138109A81C2288
:10AA3000FDF7BEFB09AB1A7808231343FD2201AED4
:10AA4000134009AA137000210322301C0A970C97A7
:10AA50000D970E970F97FDF7ABFB33780F229146BA
:10AA6000934301229246524613434A461340102212
:10AA700093465A461343337073784A46934352467B
:10AA800013434A4613405A4613437370B378062261
:10AA9000934304221343DBB2082293434246934379
:10AAA0005246134300211422281CB370FDF780FB8B
:10AAB00002AB049303232B81AB813B4B6F812B6152
:10AAC0006E60231C608809A92A1C0C33FFF770FFF5
:10AAD000071E00D08FE723786A469372334B00211C
:10AAE000138168460322FDF763FB6A4613784A46E2
:10AAF0009343524613434A4613405A4613436A4609
:10AB0000137053784A469343524613434A461340C0
:10AB10005A4613436A46537093780622934302229F
:10AB200091464A4613436A46937000211C2209A8A5
:10AB3000FDF73EFB09AA13785A46134309AA13707E
:10AB4000002100AB0322301C0A970C970D970E933F
:10AB50000F97FDF72DFB002333707370B378062237
:10AB600093434A461343DBB208229343424693433E
:10AB70005246134300211422281CB370FDF718FB22
:10AB800002AB2B6001232B8114236F81AB816E609C
:10AB90006088231D09A92A1CFFF70AFF071C2AE762
:10ABA000B4CF010001020000F825002002020000DD
:10ABB00030B5041C85B0002819D0002917D082694F
:10ABC000002A14D0CB8B0225AB430320012B0FD1DD
:10ABD0000C2268460021FDF7EBFA194A6B461D70FE
:10ABE0001378082B29D817499B00CB589F460E2075
:10ABF00005B030BD072369464B7001320223019234
:10AC00000B72201CA369694698470020F0E70623D1
:10AC10006A465370F5E70523EDE70423EBE70323CA
:10AC2000E9E7022369464B70EBE701236A4653705C
:10AC3000E7E7002369464B70E3E70720D8E7C04603
:10AC4000F825002090CF010070B5051C84B00C1CC5
:10AC500000281CD000291AD00B88112B13D0502BA0
:10AC600005D0102B01D18B88838204B070BDCB88B6
:10AC700002899A4211D082899A42F6D1FFF798FF51
:10AC80000028F2D00DE001235B428382EDE70E2025
:10AC900000210022FDF796FAE7E7CB8B0320022B79
:10ACA00004D000210022FDF78DFADEE701AE00217D
:10ACB0000C22301CFDF77CFA2122A25C2021615C71
:10ACC000120201230A433370134001225340737070
:10ACD000AB69002B03D0281C311C9847C5E707201F
:10ACE000DFE7C04630B58FB002910190039200F0CB
:10ACF000B9F800236946041C0B8209930A930B934D
:10AD00000C930D9314D0828A1C4B08209A4201D1D7
:10AD10000FB030BD012209A801A902F097F86A46D8
:10AD200001231382127B142A04D98020C001EFE78B
:10AD30000E20EDE7002A0CD0029900291CD06846AD
:10AD4000253002F083F86B461A7B1B8A6946D318BC
:10AD50000B8205AD281C00211022FDF729FAA388DB
:10AD600004AA2B800123AB7009ABAA60EB60A08A18
:10AD7000291CFFF71FFECBE70148C9E7FFFF0000D2
:10AD80000140000010B582B0002817D0002915D06E
:10AD90000B78012B08D0022B09D14B78072B06D852
:10ADA000214A9B00D3589F464B78012B04D907209A
:10ADB00000210022FDF706FA02B010BD0E20F7E7D1
:10ADC00000F014FBF8E74B68187800F047FBF3E756
:10ADD00049686846022202F039F8009800F0A6FAA5
:10ADE000EAE700236A46138049686846022202F0B7
:10ADF0002DF86B460020185EFFF78CFDDCE700F0B5
:10AE000033FBD9E7FFF76AFDD6E7FFF74BFDD3E742
:10AE10004B6800201C780549221C00F08DFC201C8A
:10AE200000F066FBC8E7C046C4CF0100E4CF0100D4
:10AE300000B583B0002101A80422FDF7B9F9074B42
:10AE4000074801A90193FFF7B9FD002803D00021AD
:10AE50000022FDF7B7F903B000BDC04685AD010083
:10AE6000FC25002000487047FC250020A120F0B5FB
:10AE7000C0004D46814637484446804636485F46C6
:10AE80005646F0B4A321802584468020C900A02323
:10AE9000AD01A22640428A4608240022DB05291C77
:10AEA0000027F600834650461950484619500420A2
:10AEB0000138C046C046C046C046C046C046C0462F
:10AEC000C046C046C046C046C046F1D140461950B3
:10AED00004200138C046C046C046C046C046C046F1
:10AEE000C046C046C046C046C046C046F1D16046D6
:10AEF0001F50520801200138C046C046C046C04617
:10AF0000C046C046C046C046C046C046C046C04611
:10AF1000F1D19859284202D058460243D2B23C207F
:10AF20000138C046C046C046C046C046C046C046BE
:10AF3000C046C046C046C046C046F1D1013CE4B25E
:10AF4000002C00D0AFE7101C3CBC90469946A246AE
:10AF5000AB46F0BD0C05000034070000F0B5A022A0
:10AF60008027A323BF01DB00011CD205A1260120FD
:10AF7000D750F60008233C1C204D844614E097511E
:10AF80003C200138C046C046C046C046C046C04608
:10AF9000C046C046C046C046C046C046F1D1013B8F
:10AFA000DBB24908002B24D0945104200138C0465C
:10AFB000C046C046C046C046C046C046C046C04661
:10AFC000C046C046C046F1D1042054510138C046A5
:10AFD000C046C046C046C046C046C046C046C04641
:10AFE000C046C046C046F1D160460842C7D157515D
:10AFF000C6E7034AA021C9058B50F0BD0C0500002F
:10B0000034070000A0238022A321DB059201C900A0
:10B010005A50A121C9005A5002200138C046C046EA
:10B02000C046C046C046C046C046C046C046C046F0
:10B03000C046C046F1D1264B8021A0228901D2050D
:10B04000FA20D15040000138C046C046C046C04634
:10B05000C046C046C046C046C046C046C046C046C0
:10B06000F1D11C4BA0220021D205D1503C20013847
:10B07000C046C046C046C046C046C046C046C046A0
:10B08000C046C046C046C046F1D1A223A022DB0084
:10B09000D205D220D25840000138C046C046C04632
:10B0A000C046C046C046C046C046C046C046C04670
:10B0B000C046F1D1A0230749DB0500205850910478
:10B0C00005D4A222D20098580123400B18407047A3
:10B0D0000C0500003407000010B53749002000F0CF
:10B0E0002BFBFFF78FFF002807D1344800210022F7
:10B0F000FDF768F8324C201C10BDCC20FFF72EFF66
:10B100004420FFF72BFFC8208000FDF773F8FFF7FE
:10B1100079FF0028E9D0CC20FFF720FFBE20FFF701
:10B120001DFFFFF7A3FE041CFFF7A0FE000204436F
:10B13000244BA0B298421BD801F0A8FC194B184A26
:10B1400000F0B6FE184A194B00F0B2FE184A194B2F
:10B1500000F092FB00F070FB84B2221C1A49002020
:10B1600000F0EAFA19491A4A002000F0E5FAC2E7AD
:10B17000404280B201F08AFC0A4B094A00F098FE76
:10B18000094A0A4B00F094FE094A0A4B00F074FB8E
:10B1900000F052FB0F4C0443A4B2DEE7C046C046A9
:10B1A000000000000000B03F00000000000024404C
:10B1B000000000000000E03FF8CF01000240000066
:10B1C000FFFF0000FE0F000018D001002CD001008E
:10B1D00040D001000080FFFF1C4B1B78002B29D0C2
:10B1E000632B0BD91A4B1B4A1B780121D35CA0227D
:10B1F0009940A123DB00D205D15025E0144A15491E
:10B20000127801208A5CA0219040A122D200C905B9
:10B2100088509800C31858000138C046C046C04640
:10B22000C046C046C046C046C046C046C046C046EE
:10B23000C046F1D1064B074A1B780121D35CA022FE
:10B240009940054BD205D1507047C04620260020BA
:10B2500018260020682000200C050000F8B52E4CB0
:10B26000E021227849005018A023DB05032180004B
:10B27000C1500120051C9540284AE0279D50657863
:10B280007F00EE19B600F150061CAE409E50A57826
:10B29000EE19071CAF40B600F1509F50E578E0274B
:10B2A0007F00EE19B600F150061CAE409E50257985
:10B2B000EE19071CAF40B600F1509F506579E027AA
:10B2C0007F00EE19B600F150061CAE409E50A579E5
:10B2D000EE19071CB600AF40F1509F50E479E0260C
:10B2E0007600A519A040AD00E95098500C481950BF
:10B2F00020209850E320C00019504021995009485F
:10B300000121094AFDF788FB002803D00021002213
:10B31000FCF758FFF8BDC046682000200C0500006F
:10B32000140700001C260020D9B1010070B582B0BE
:10B3300001AC20802948012105780B1CAB401D1C65
:10B34000A022274BD205D55045780E1CAE40D650D2
:10B3500085780E1CAE40D650C5780E1CAE40D65037
:10B3600005790E1CAE40D65045790E1CAE40D65025
:10B3700085790E1CAE40D650C0798140D1502378DB
:10B38000184A1370072B23D86378002B16D0A023FC
:10B39000A122DB054021D2009950114A2021995069
:10B3A000114B212118680022FDF76AFB002803D009
:10B3B00000210022FCF706FF02B070BDA023A122ED
:10B3C000DB052021D2009950054A40219950E7E73A
:10B3D000002000210022FCF7F5FED5E768200020C0
:10B3E0000C050000182600201C26002038B518483F
:10B3F000012104780B1CA3401C1CA022154BD20574
:10B40000D45044780D1CA540D55084780D1CA5401F
:10B41000D550C4780D1CA540D55004790D1CA5400D
:10B42000D55044790D1CA540D55084790D1CA540FC
:10B43000D550C0798140D150074B1868FDF7AEFB5D
:10B44000002803D000210022FCF7BCFE38BDC04616
:10B45000682000200C0500001C260020014B1870FD
:10B460007047C0462026002010B584B001AC0021F2
:10B470000C22201CFCF79CFE0223237001230749A9
:10B4800023720198A2686160FFF72CFC002803D0AA
:10B4900000210022FCF796FE04B010BD20260020FB
:10B4A0000F4AA023DB050321995080200D4A800418
:10B4B0009850ED20C00019508020C00498500A48D0
:10B4C00019508020800598500848195080200005A8
:10B4D0009850EE20C00019508021490599507047BE
:10B4E000640700000C050000740700006C070000F2
:10B4F00038B5052824D8154B80001B589F46A0243A
:10B500008025E4052D05A123DB00E5506420FCF730
:10B5100071FE0F4BE55038BDA0248025E4056D0574
:10B52000F1E7A0248025E405AD04ECE7A024802504
:10B53000E405ED04E7E7A0248025E405AD05E2E796
:10B54000002000210022FCF73DFEE4E748D0010086
:10B550000C05000008B50649002000F0EDF8802138
:10B56000A123A022C900DB00D205D15008BDC046EE
:10B5700060D0010008B5E622A023DB050321D2003C
:10B58000995080200A4A40019850E520C000195087
:10B590008021C900995007480021074AFDF73CFA6D
:10B5A000002803D000210022FCF70CFE08BDC04695
:10B5B0000C0500002426002055B5010008B51049EF
:10B5C000002000F0B9F88021A123A022DB00D205E1
:10B5D0004901D15000200B4900F0AEF80A4BF02190
:10B5E000186809030022FDF74BFA002803D0002158
:10B5F0000022FCF7E7FD054B01221A7008BDC0468A
:10B6000070D0010080D001002426002028260020D0
:10B6100008B50F49002000F08FF800200D4900F018
:10B620008BF80D4B1868FDF7B9FA002803D00021FC
:10B630000022FCF7C7FD094BA0228021D205490159
:10B64000D1508021C900D150054B00221A7008BD8D
:10B6500098D00100A8D00100242600200C0500008D
:10B6600028260020014B18787047C0462826002065
:10B67000F0B5474680B42A4C051C207882B0884635
:10B68000171C1E1C002829D02269AA4245D9EFF3B5
:10B690001080012181F3108801900020002D0CD131
:10B6A0004519089BED006419E362019B83F3108840
:10B6B000002002B004BC9046F0BD6B1C5A00D318A9
:10B6C000DB0042466800E2504219E318D2005F6096
:10B6D000A2180023936216625362E1E70223114A23
:10B6E00023616361104BA261E361A26480230F4A6E
:10B6F000DB00A062236260622365A065E062E26411
:10B700006065E0650A49E01D01F0A9FB201C0949BC
:10B7100001F0A5FB2023A371B6E701204042C8E752
:10B720003C2A0020C0D001003C2600202C2600200E
:10B73000CCD00100D0D001000EB4002003B070477F
:10B7400003210A4802680A430260094802680A4362
:10B7500002600849084A094B9B1A03DD043BC8589C
:10B76000D050FBDC064880470648004724050040CF
:10B770005405004020D1010000200020702000204E
:10B7800031820100C1800100FEE7FEE7FEE7FEE72F
:10B79000FEE7FEE7002934D00123002210B48842DE
:10B7A0002CD301242407A14204D2814202D20901F0
:10B7B0001B01F8E7E400A14204D2814202D2490011
:10B7C0005B00F8E7884201D3401A1A434C08A042B4
:10B7D00002D3001B5C0822438C08A04202D3001B4A
:10B7E0009C082243CC08A04202D3001BDC08224361
:10B7F000002803D01B0901D00909E3E7101C10BC85
:10B800007047002801D00020C04307B4024802A1BD
:10B810004018029003BDC046190000000029F0D076
:10B8200003B5FFF7B9FF0EBC4243891A1847C0465B
:10B830007047C0460000000038B50E4B0C4A041C8F
:10B840000D1C01F095F9002804D1201C291C01F0E1
:10B85000E9F838BD074B064A201C291C00F0B8FD4A
:10B8600001F0E0F880231B06C018F2E7C046C0468E
:10B87000000000000000E041F8B55F46564644462F
:10B880004D46F0B40C034D00CE0F610A440F214326
:10B89000C400180380465800400D8246D80F8446E5
:10B8A0004046400A530F0343D0006D0D371C8346BA
:10B8B0005246664500D19DE0AF1A002F00DC03E13F
:10B8C000002A38D1184300D0E4E0630709D00F23E1
:10B8D0002340042B05D0231DA342A441644209192F
:10B8E0001C1C080200D478E0CE4B6A1C9A4200D19E
:10B8F00005E1CD4BE40819404807520549020443CD
:10B900000B0B520D371C002000211B03201C1C0BAD
:10B910000B0D1B05C54D2343520552081D40154311
:10B920006D006D08FF07291C39433CBC90469946C1
:10B93000A246AB46F8BDBB488542C6D08020000475
:10B940000343382F00DDECE01F2F00DD20E1202035
:10B95000C01B1A1C814682405846F8400243944658
:10B9600058464A469040421E9041FB406246024380
:10B970001F1CA21A9442A4416442C91B091B141C37
:10B980000B02A2D549024F0A002F00D1C4E0381C97
:10B9900001F0F8F8021C083A1F2A00DDB7E0282160
:10B9A000091A201C9740C84007439440954200DD87
:10B9B000A9E0551B691C1F2900DDD8E01F22551B7B
:10B9C0003B1C221CAB40CA40AC40651EAC4113433B
:10B9D000CF401C43391C002577E74807E4086A0577
:10B9E000C908520D371C04438E4B9D4248D00903B1
:10B9F0000B0B88E7AA1A9446002A00DC98E0504610
:10BA0000002853D08748854200D15EE7802000049B
:10BA100003436246382A00DDFDE01F2A00DD4BE1CA
:10BA200020226046101A1A1C8240824691465846CF
:10BA30006246D0404A46024390465846524690409D
:10BA4000421E9041424602436046C3401219A24240
:10BA5000A441644259180919141C080200D434E79F
:10BA6000704B01359D4200D124E16F4B60081940B5
:10BA7000012323401C1C0443CB071C43490824E733
:10BA80000B1C234300D1C7E180231B030B431B0383
:10BA90001B0B38E7013F002F64D15846221A94420D
:10BAA000A4416442C91A091B141C69E7584618438B
:10BAB00000D10AE70122524294446046002800D097
:10BAC000C5E058460219C2E7002F72D1681C400534
:10BAD000400D012800DCDEE05A46A21A9442BF4124
:10BAE000C81A7F42C71B380200D488E05A46141B8C
:10BAF000A3459241591A52428F1A664644E7371CB1
:10BB000000230024FFE64849AD1A3940DDE6271C32
:10BB100028388740002449E7201C01F033F8203002
:10BB200038E75A461A43531E9A41D2B2002720E7FB
:10BB3000002A00D0DDE0681C4205520D012A00DC1D
:10BB40008EE0384DA84200D1B3E05D462A19A242EA
:10BB5000A441644259180919CC07520814434908F2
:10BB6000051CB2E62F48854200D0EAE6ADE62B1C64
:10BB70001F3B3A1CDA40131C20296DD03F22551B75
:10BB8000AF403C43601E84411C43002100259CE6DD
:10BB9000381C20381A1CC240101C202F5ED04022B6
:10BBA000D71BBB405A461A43531E9A4102430027F3
:10BBB000DFE6002D3CD01B4DAA4500D194E0802546
:10BBC0002D047F422943382F00DDADE01F2F00DD1B
:10BBD0002CE12025ED1B081C261CA840FE40AC4093
:10BBE0000643651EAC413443F9405D462C1BA3451A
:10BBF00092415B1A5242991A55466646C0E6131C9A
:10BC00003B43141C002B00D0BEE600270022002579
:10BC100000210024E8E65A461A43531E9A41D2B244
:10BC2000002313E7FF070000FFFF7FFFFFFF0F80E8
:10BC30000D1C254358D0FF43002F51D1041BA345B1
:10BC40009241591A5242891A5546664698E69648D4
:10BC5000854200D0DDE638E6002792E70023A1E721
:10BC6000081C2043002D00D0C0E0002800D1FBE0DC
:10BC70005846184300D128E658460219A242A4416A
:10BC8000644259180919141C0A0200D41DE6874B96
:10BC90000125194019E6081C2043002D39D1002840
:10BCA0006DD15946194300D1BDE0191C5C4666466A
:10BCB0000BE6051C2A1CABE7604620381A1CC24064
:10BCC00060469146202800D1ABE04022121A9340F2
:10BCD0005A461A43531E9A414B461A430023B5E66F
:10BCE000714DAA4500D06EE7191C5C465546664664
:10BCF000EBE5002D1ED10D1C254373D0D543002D3F
:10BD00006DD15C445C4592415918524289185546A0
:10BD1000A3E6002849D15946194300D196E0191CE1
:10BD20005C466646604DD0E50C43611E8C41E4B232
:10BD300000215AE75C4DAA4554D055428022100498
:10BD40000143382D00DD85E01F2D00DD95E0202228
:10BD5000501B0A1C84468240201CE8400243904647
:10BD600062469440601E844142461443E9405C446C
:10BD70005C459241CB185242991855466DE658469B
:10BD8000184300D1A1E55846271ABC429241C81A6F
:10BD90005242801A02026AD55846041BA3459241BA
:10BDA000591A5242891A66468FE55846184336D0CA
:10BDB0004807E40804438020C9080003014208D072
:10BDC000DD08054205D15946CA085C071443291C01
:10BDD0006646630FC9001943E400334D75E5324AE6
:10BDE0009245AED1191C5C4655466EE5002837D009
:10BDF0005846184313D080254807E408C9082D0386
:10BE000004432942E5D0D8082842E2D15D46EA0839
:10BE10005C071443011CDCE70023002473E5224D7A
:10BE200053E5002354E700270022F1E63D1C203DA6
:10BE30000A1CEA40151C202F31D04026F71BB940C0
:10BE40000C43611E8C412C430021CEE6164A00278C
:10BE5000151CDDE60C43611E8C41E4B2002186E72F
:10BE6000191C5C46104D30E5191C5C462DE5031C81
:10BE70003B43D8D0011C3C1C27E520204042401900
:10BE80000A1CC2409046202D0BD04020451BA940E3
:10BE90000C43611E8C4145462C43002167E700217D
:10BEA000CEE70021F4E7C046FF070000FFFF7FFF59
:10BEB000F0B5564644465F464D46F0B41F1C0B0392
:10BEC0001B0B9A464B0087B0041C80465B0DC80FC5
:10BED000161C02938146002B68D0694B0299994247
:10BEE00032D08022534652031A43D200630F1A43C2
:10BEF0009246644AE0008918804602910024002599
:10BF00003B031B0B9B467800FB0F321C400D039339
:10BF100000D175E05A4B984269D0802259465203AD
:10BF20000A43730FD2001A43564B9346C018F200CF
:10BF3000002303994E4671401C430F2C00D9A9E001
:10BF4000514EA4003459A74653461C4300D087E005
:10BF50000025AA46A84608240225D1E74946022D15
:10BF60006CD0032D00D117E2012D00D058E10D4017
:10BF7000EDB20024A9460023A0460020002125039D
:10BF80000A0D1C052D0B1205404B2A431340234379
:10BF90005B004C465B08E207191C4046114307B0A2
:10BFA0003CBC90469946A246AB46F0BD534623435F
:10BFB00050D05346002B00D184E1504600F0E2FD02
:10BFC000031E272B00DD76E128210D1A211C083BDA
:10BFD0005246E9409A400D1C1543221C9A40AA463D
:10BFE00090462B4B00241B1A0293002588E75B46E2
:10BFF0001E430323002E9CD1B3460022022398E760
:10C000005B46334321D05846002800D14EE100F072
:10C01000B9FD272800DD42E128210F1A021C311C3E
:10C02000083A5B46F94093400F1C1F43331C934072
:10C03000BB461A1C164B181A00237AE701230B4043
:10C0400000249946A0460E4B97E70027BB460022E6
:10C0500001236EE7002104248A46884601254FE724
:10C060000C2403254CE700258024A9462403A84678
:10C07000034B82E7DA46904603991D1C6FE7C046E2
:10C08000FF07000001FCFFFFD8D00100FFFF0F8079
:10C090000DFCFFFF029F160C381804904046070C59
:10C0A0000004000C1204120C031C5343041C3D1C1E
:10C0B0007443554398463B1C73436419A446444655
:10C0C0000293230C63449D4204D9029D80246402A0
:10C0D0002D1902951D0C039545462C041B04240CB8
:10C0E0001C1905945C46230C051C58432404240C9D
:10C0F0008446381C604365435F438146CC44280C2A
:10C100006044BB46814502D980277F02BB442D0491
:10C11000070C2D0C000440195546BC462F04E3447F
:10C120008446280C3D0C2F1C5743B8462F1C7743E0
:10C130004243B94647463F0C9144BA46D144464330
:10C140004A4502D980225202B6184F463A0CB61818
:10C150003A0447463F043F0CB8462F1C67435D43F3
:10C160004443584365190190380C2D184244B84691
:10C17000AC4204D9019880235B02C0180190039C53
:10C18000029F201C6044C0196045A4414746644298
:10C19000A4462B043C049946240C4C44A046D844A5
:10C1A0008018C246E244904292415746524291461C
:10C1B000F219E245BF417F424B46BC46D845BF41DC
:10C1C000D4187F4263461F432D0C7F19B24292411F
:10C1D0004C45AD4152426D421543019E7D19AB194C
:10C1E000E20D5B02059F134342023A439A46531EF7
:10C1F0009A41C30D101C18436402204380465046E8
:10C20000C0010DD5454601225646049C6B082A40C4
:10C210001A43F30701341A43760804949046B24651
:10C22000049E634FF319002B61DD404640070BD09D
:10C230000F2244462240042A06D042460432424598
:10C2400080414042824490465546ED0107D5594B06
:10C250005646049F80201E40C000B2463B18564AF6
:10C26000934200DDEAE644465546E208680710437B
:10C2700001226C025B050A408046240B5B0D91464F
:10C280007BE6DA4690461D1C69E680242403574667
:10C2900027421CD13C432403240B484B6DE6031C6E
:10C2A000283B311C99408B460022C3E6301C00F02D
:10C2B00069FC2030ADE6283B211C994000228A46CB
:10C2C00090468EE6201C00F05DFC203078E6584653
:10C2D000204207D1044303992403240B8946904646
:10C2E000364B4AE63C432403240B344B45E6344B9F
:10C2F000049E9B1B382B06DD01230B40002499462E
:10C30000A046002339E61F2B25DC049C2D4D464614
:10C310006019524644468640DC4082405746301CF5
:10C320002243DF40441EA04102433B1C540709D076
:10C330000F201040042805D0101D90429241524217
:10C340009B18021C1D021AD501230B40002499469C
:10C35000A046012311E61C48049C5546001BC5401D
:10C36000281C202B16D0194E5746A21997403A1C6C
:10C3700043461A43531E9A4102430023D6E7580707
:10C380005B02D2081C0B01230B40104399468046E8
:10C390000023F2E50022EBE780242403504601232A
:10C3A000044319402403240B8946044BE5E5C046A9
:10C3B000FF030000FFFFFFFEFE070000FF07000075
:10C3C00002FCFFFF1E040000E2FBFFFF3E04000032
:10C3D000F8B55F46564644464D46F0B40C034D0052
:10C3E000CF0F610A440F2143C4001803DE0F8046BB
:10C3F000B44646465800760A530F3343D600C94A1E
:10C400006D0DBA46400DB346904200D1EBE0624656
:10C41000012672409446674500D1A1E02F1A002FF3
:10C4200000DC08E100283BD15846184300D0E8E082
:10C43000600709D00F232340042B05D0231DA342FE
:10C44000A441644209191C1C0A0200D479E0B54BCE
:10C450006A1C9A4200D109E1B34BE408194048072D
:10C46000044349025205012750460B0B520D074069
:10C47000002000211B03201C1C0B0B0D1B05AB4DCA
:10C480002343520552081D4015436D006D08FF07F8
:10C49000291C39433CBC90469946A246AB46F8BDA0
:10C4A000A0488542C4D0802000040343382F00DD1B
:10C4B000F0E01F2F00DD24E12020C01B1A1C5E4687
:10C4C0008240FE40324394465A468240101C421E2F
:10C4D0009041FB40624602431F1CA21A9442A441B1
:10C4E0006442C91B091B141C0A02A1D549024F0A48
:10C4F000002F00D1C9E0381C00F044FB021C083AB0
:10C500001F2A00DDBCE02821231C091A9740CB40DC
:10C510001F439440954200DDAEE0551B691C1F2966
:10C5200000DDDDE01F22551B3B1C221CAB40CA4036
:10C53000AC40651EAC411343CF401C43391C002561
:10C5400076E74807E4086A0501275646C908520DF0
:10C5500037400443734B9D4249D009030B0B87E7D7
:10C560002A1A9446002A00DC9BE0002855D06D482A
:10C57000854200D15CE780200004034360463828F0
:10C5800000DD09E11F2800DD50E162462020801A0D
:10C590001E1C8640B1465E46D6404A4632435E4641
:10C5A00086409046301C421E9041424602436046FF
:10C5B000C3401219A242A441644259180919141C1B
:10C5C000080200D434E7574B01359D4200D142E1C7
:10C5D000554B60081940012323401C1C0443CB0722
:10C5E0001C43490824E71E4300D014E70FE70B1C47
:10C5F000234300D1CFE180231B030B431B031B0B01
:10C6000036E7013F002F66D15E46A21B9442A4414B
:10C610006442C91A091B141C66E75846184300D126
:10C6200006E701267642B4446046002800D0CAE0FE
:10C630005E463219BEE7002F7AD1681C4005400DD6
:10C64000012800DCE3E05A46A21A9442BF41C81A0E
:10C650007F42C71B3E0200D492E05846041BA3450C
:10C660009241591A52428F1AE24641E75346012736
:10C670001F4000240023FBE62B49AD1A3940D7E6C2
:10C68000271C28388740002444E7201C00F07AFA51
:10C69000203033E75A461A43531E9A41D2B200273C
:10C6A0001BE7002A00D0E1E0681C4605760D012E4C
:10C6B00000DC91E01B4DA84200D1F7E05E46321944
:10C6C000A242A441644259180919CC0752081443E4
:10C6D0004908051CACE61348854200D0E6E6A7E60B
:10C6E0002B1C1F3B3E1CDE40331C202970D03F22F8
:10C6F000551BAF403C43601E84411C430021002574
:10C7000096E6381C20381E1CC640301C202F61D0F5
:10C710004022D71BBB405A461A43531E9A4102433C
:10C720000027DAE6FF070000FFFF7FFFFFFF0F8013
:10C73000002D38D0B94DA84200D192E080252D04BB
:10C740007F422943382F00DDAAE01F2F00DD2CE1B6
:10C750002025ED1B0E1CAE40B046261CFE40424676
:10C76000AC401643651EAC413443F9405A46141B95
:10C77000A34592415B1A5242991A051CE246B3E660
:10C78000131C3B43141C002B00D0B1E600270022F1
:10C79000002500210024DDE65A461A43531E9A4123
:10C7A000D2B2002305E70D1C25435AD0FF43002FCA
:10C7B00053D15A46141BA3459241591A5242891A21
:10C7C000051CE24690E69548854200D0D6E62FE665
:10C7D00000278FE700239EE7081C2043002D00D090
:10C7E000C3E0002800D1F6E05846184300D11FE608
:10C7F00058460219A242A441644259180919141C4E
:10C800000A0200D414E6864B0125194010E6081CE4
:10C810002043002D3AD1002800D089E05946194321
:10C8200000D1BFE0191C5C46E24601E660462038B4
:10C830001A1CC2406646101C202E00D1B0E04022D7
:10C84000921B93405A461A43531E9A4102430023B7
:10C85000AFE6724D00272A1C9BE7704DA84200D01E
:10C8600070E7191C5C46051CE246E1E5002D20D16D
:10C870000D1C254375D0D543002D6FD15C445C451C
:10C880009241591852428918051C99E6002835D161
:10C8900059461943DDD0191C5C46E2465F4DC7E599
:10C8A0000C43611E8C41E4B200215FE7051C021CB1
:10C8B0006FE75A4DA84254D05542802216043143A6
:10C8C000382D00DD81E01F2D00DD91E02022561B78
:10C8D0000A1CB446B240261CEE40324390466246E3
:10C8E0009440661EB44142461443E9405C445C45B2
:10C8F0009241CB1852429918051C61E658461843DC
:10C900004CD04807E40804438020C90800030142D2
:10C9100008D0DD08054205D15946CA085C07144312
:10C92000291CE246630FC9001943E4003B4D7FE533
:10C930005846184300D17BE55E46A71BBC42924196
:10C94000C81A5242801A06024CD55846041BA34509
:10C950009241591A5242891AE24669E52F4A904299
:10C96000AED1191C5C46051C62E5002836D058463D
:10C97000184313D080254807E408C9082D03044351
:10C980002942CFD0D8082842CCD15D46EA085C07BE
:10C990001443011CC6E70023002469E51F4D47E549
:10C9A00000234FE700270022F3E63D1C203D0E1C2C
:10C9B000EE40351C202F2DD04026F71BB9400C43EC
:10C9C000611E8C412C430021D0E60C43611E8C413A
:10C9D000E4B200218AE7191C5C4629E5191C5C4673
:10C9E0000E4D25E5031C3B43DCD0011C3C1C1FE520
:10C9F0002026764276190A1CF2409046202D0BD054
:10CA00004026751BA9400C43611E8C4145462C43B2
:10CA100000216BE70021D2E70021F4E7FF070000C7
:10CA2000FFFF7FFF70B50B1C124C09030E0B590062
:10CA3000021C490DDD0F0020A14211DD0E4881428C
:10CA40000FDC8020400306430C48401A1F280BDDF2
:10CA50000B4A521AD640321C5042002D00D1101CF5
:10CA600070BD084BE818FBE7074BC240C9188E4061
:10CA70003243F1E7FE0300001D0400003304000010
:10CA800013040000FFFFFF7FEDFBFFFFF8B5041E5E
:10CA900031D0C70F00D04442201C00F073F8184D6D
:10CAA0002D1A0A2819DD0B38844024036D05240B48
:10CAB0006D0D3A1C0026002000210B0D2403240BD1
:10CAC0001B0523430F4C2D051C402C4364006408B8
:10CAD000D307211C301C1943F8BD061C1536231C36
:10CAE000B3401E1C0B23181AC44024036D05240BED
:10CAF0006D0D3A1CDFE70022002500240026DAE74E
:10CB00001E040000FFFF0F808446101C62468C4606
:10CB1000191C634600E0C0461FB500F019F9002853
:10CB200001D40021C8421FBD10B500F049F84042B1
:10CB3000013010BD10B500F00BF9002801DB00201A
:10CB400010BD012010BDC04610B500F001F900284D
:10CB500001DD002010BD012010BDC04610B500F061
:10CB600079F8002801DC002010BD012010BDC0466E
:10CB700010B500F06FF8002801DA002010BD012088
:10CB800010BDC0461C2101231B04984201D3000C98
:10CB900010391B0A984201D3000A08391B09984230
:10CBA00001D30009043902A2105C40187047C04646
:10CBB0000403020201010101000000000000000066
:10CBC000F0B55F4656464D464446F0B40D1C041C75
:10CBD0008046E80F814618030F03000B3F0B83B01C
:10CBE00084461B48009749005E00DF0F490D9246BE
:10CBF000760DBB4681420CD01548864210D00120EC
:10CC0000B14215D003B03CBC90469946A246AB4613
:10CC1000F0BD009F01202743F4D10D488642EED19C
:10CC2000604602430120002AECD10120B142E9D143
:10CC3000009B6345E6D1D045E4D1D94506D0002913
:10CC4000E0D11C43201C441EA041DBE70020D9E7B3
:10CC5000FF070000F0B55F4656464D464446F0B427
:10CC6000CD0FDE0FAC461D032D0BB146374E0F0323
:10CC70004C00AB465D0080463F0B640D92466D0D47
:10CC8000B44232D0314EB54235D0002C0ED13843AB
:10CC900041424141081C002D0BD0002919D1CC453F
:10CCA0002DD0654668420123184318E0002DF6D1C7
:10CCB000281C59460A4353425341002806D1002BF1
:10CCC000EDD0634658420123184308E00020002BB2
:10CCD00005D14A46504250414042012318433CBCD2
:10CCE00090469946A246AB46F0BD3E1C0643C9D0CD
:10CCF00002204042F3E75E461643C6D0F8E7AC4256
:10CD000007DC0BDA614648424841404201231843A0
:10CD1000E5E76646704201231843E0E75F450AD81D
:10CD20000ED000205F45DAD2654668426841404235
:10CD300001231843D3E76246504201231843CEE74C
:10CD4000D045F8D80020D045EED3C8E7FF07000053
:10CD5000F0B556464D4644465F46F0B40D1C83B0D0
:10CD6000041C0190E80F814618030F03000B3F0BD2
:10CD700084463548009749005E00DF0F490D924612
:10CD8000760DB846814234D02F48864236D00029ED
:10CD900018D0002E1FD1341C67463A4353425341EA
:10CDA000002C1FD00020002B05D14246504250419C
:10CDB00040420123184303B03CBC90469946A2462A
:10CDC000AB46F0BD0098044360426041041C002E55
:10CDD000E2D00028E9D1C14515D04F467842012361
:10CDE0001843E8E7002BF6D04B465842012318437E
:10CDF000E1E7009F02202743DDD1C5E76746022017
:10CE00001743D8D1C3E7B14204DD4A46504201235B
:10CE10001843D0E7B14207DB00986045E4D80AD058
:10CE2000009F00206745C6D24F4678427841404275
:10CE300001231843BFE7019A5245D5D8019A002033
:10CE40005245F1D3B7E7C046FF07000010B50023F5
:10CE5000934203D0CC5CC4540133F9E710BD031CEA
:10CE60000A7801311A700133002AF9D17047002382
:10CE7000C25C0133002AFBD1581E7047F8B5C0468A
:10CE8000F8BC08BC9E467047F8B5C046F8BC08BC64
:10CE90009E46704743000000002000204572726FDC
:10CEA0007220636F6465203D20307825782C6C6992
:10CEB0006E655F6E756D203D2025642C2066696C63
:10CEC00065203D2025730D0A00000000328E010010
:10CED000E28C0100AE8C0100948D0100DA8D01001E
:10CEE0006A8D01002C8D0100417070207374617295
:10CEF00074656421202025730D0A00004D61727352
:10CF0000680000000F18010073797374656D206963
:10CF10006E69742025730D0A00000000737461723D
:10CF2000746564007065726970686572616C20690F
:10CF30006E69742025730D0A000000006D6F746F18
:10CF40007220696E69742025730D0A00686561742A
:10CF500020696E69742025730D0A00006175746F75
:10CF60002074656D7020696E69742025730D0A0048
:10CF700074656D7065726174757265206465746541
:10CF80006374206F6E652074696D6521200D0A0041
:10CF90003AAC010032AC01002AAC010022AC010025
:10CFA0001EAC01001AAC010016AC01000EAC010071
:10CFB000F4AB01001BC5D5A502008286E311CB3777
:10CFC000000000000AAE010004AE0100FEAD010049
:10CFD000E2AD0100D0AD0100C6AD0100C0AD010061
:10CFE00010AE01006D757369635F636D64203D2051
:10CFF00025700D0A00000000537461727420746F74
:10D0000020726561642074656D70657261747572FB
:10D0100065210D0A0000000074656D706572617411
:10D02000757265203D2025700D0A0000445331388B
:10D0300042323020696E69742025730D0A000000A9
:10D04000537563636573730040B5010018B5010043
:10D0500022B501002CB5010036B50100FEB4010077
:10D0600053746172742046616E210D0A0000000045
:10D0700053746172742068656174210D0A000000A8
:10D0800053746172742066616E20776169742074D4
:10D09000696D6572210D0A0053746F7020686561B7
:10D0A00074210D0A0000000053746F702066616ED9
:10D0B00020776169742074696D6572210D0A000022
:10D0C0005465726D696E616C00000000525454002A
:10D0D000534547474552000094C0010082C20100F9
:10D0E00082C2010074C001005EBF01005EBF01008A
:10D0F00066C0010074C001005EBF010066C001008F
:10D100005EBF010074C001005CBF01005CBF010094
:08D110005CBF01008AC20100AE
:08D11800A8AFFF7F0100000039
:10D1200000000000000000000000000000000000FF
:10D1300000000000000000000000000000000000EF
:10D1400094CE01000000000000000000000000007C
:10D1500000000000000000000000000000000000CF
:10D1600000000000000000000000000000000000BF
:10D1700000000000000000000000000000000000AF
:10D18000FFFFFFFFC80000000201040308070B09AE
:040000031000B741F1
:00000001FF
