:020000021000EC
:10800000004000205DBD0100A5BD0100A7BD01002D
:108010000000000000000000000000000000000060
:10802000000000000000000000000000A9BD0100E9
:108030000000000000000000ABBD0100ADBD01006C
:10804000AFBD0100AFBD0100AFBD0100AFBD01007C
:10805000AFBD010000000000AFBD0100AFBD0100D9
:10806000AFBD0100AFBD0100AFBD0100AFBD01005C
:10807000AFBD0100AFBD0100AFBD0100AFBD01004C
:10808000AFBD010039830100AFBD0100AFBD0100EC
:1080900025840100AFBD0100A1A40100AFBD010016
:1080A000AFBD0100AFBD01000000000000000000F6
:1080B00000000000000000000000000000000000C0
:1080C000164B002B00D1144B9D46402292029A1A67
:1080D000924600218B460F461348144A121A00F0AC
:1080E00067F80F4B002B00D098470E4B002B00D0A9
:1080F00098470020002104000D000D48002802D000
:108100000C4800E000BF00F02DF82000290002F02C
:10811000E3F900F011F8C04600000800004000201C
:1081200000000000000000006C200020B42A0020A5
:108130000000000000000000084B10B5041C002BDC
:1081400002D0002100E000BF054B1868836A002BB5
:1081500000D09847201C00F033F8C0460000000013
:108160005CBF010070B50E4B0E4D0024ED1AAD1032
:108170001E1CAC4204D0A300F35898470134F8E722
:1081800003F0DEFE084B094D0024ED1AAD101E1C55
:10819000AC4204D0A300F35898470134F8E770BD0F
:1081A0006C2000206C2000206C2000206C2000201F
:1081B000031C8218934202D019700133FAE770470A
:1081C000FEE7C04610B5041C82B00B1C00920649A5
:1081D000221C002003F0B4FDBFF34F8F034A044B71
:1081E000DA60BFF34F8FFEE760BF01000400FA05BD
:1081F00000ED00E082B00190019B002B14D0019BA8
:108200000A48013B01930138C046C046C046C046FB
:10821000C046C046C046C046C046C046C046C0462E
:10822000F1D1019B002BEAD102B07047E7030000B7
:108230001B4B1B78012B00D070471A4B1B681A0789
:10824000FAD1194AF02312681A4003D0102A01D03B
:10825000302A03D1154A12681A4210D0124AF0236C
:1082600012681A40402AE7D1104A12681A42E3D134
:10827000C12380220121DB00D205D150DCE70C4A6A
:108280000C4B1A600C4B802212021A60044B1B78B4
:10829000012BD1D1034B1B681A07DFD0CCE7C046B6
:1082A000E00F00F0E40F00F0E80F00F0EC0F00F03A
:1082B000DFFF07C004050040186C00401A4A802107
:1082C00089028023D150194B8022D2215202890089
:1082D0005A50C22189005A5001225A602F20013879
:1082E000C046C046C046C046C046C046C046C0465E
:1082F000C046C046C046C046F1D19A600C4B002231
:108300001A602F200138C046C046C046C046C0464D
:10831000C046C046C046C046C046C046C046F1D171
:10832000044B1A707047C04600E100E000100140A5
:108330006C20002094200020F0B5304BA0210022BA
:108340004900474680B45A50A22149005A50A421FE
:1083500049005A50A62149005A50802149005A50DC
:10836000822149005A50264A1468601C37D0254A99
:1083700000269D58244B254A1B68254FED1A2D02D7
:108380002D0A904601E0621C1AD0E3001B193868E0
:108390009B00C3185A68AA4212D84046AD1AB618B4
:1083A0001C6A9A69D9690368002B1BD0101C984776
:1083B0000028E8D000220021FFF704FF621CE4D16E
:1083C000144B15491A780B789A420ED0134A9B0029
:1083D0009E5080218023124A49035B00D15004BC87
:1083E0009046F0BD081C9047CDE7531CDBB2022B32
:1083F00001D00B70EAE700230B70E7E700100140A3
:1084000084200020040500006C2000207020002043
:108410007420002080200020812000208C2000205B
:1084200000E100E0F0B55F4656464D464446F0B4E4
:10843000BA48BB4BBB4900681A7809788BB00690E4
:10844000914200D134E20132D2B2022A00D1FDE1E0
:108450001A70B54B9200D2580699039253181B021A
:10846000AE4A1B0A136001230793111CAF4EB04B99
:10847000B04FB14C36681B78B0483F680968247823
:10848000026804960293019709910894B1460596F3
:108490009B460020351C5B46013BDBB29B46FF2B15
:1084A00072D05F460199FE008E1974783378A44625
:1084B0006345F0D05C007768E418B1780133DBB233
:1084C000E4003C19C91A4F1EB941277849420B40B4
:1084D000022F15D0032F10D1291C6C1C0DD0CC00FD
:1084E0006118890051180875096A4C1CF7D1757814
:1084F0008946AC460C1C251CDAE72C1C251CD7E74A
:108500006168CF007C18A400A418BA46277DA04655
:108510002C1C002FEFD06F1C14D0A94200D183E196
:108520009C462F1C0B1C009502E0A34210D0271C78
:10853000F900C919890051180C6A651CF5D1009D14
:1085400063462C1C454628757778251CBC46AFE74A
:108550000C1C009D191C6346A4468F4200D14FE1BC
:1085600054466718BF00D7192C1C396A7D686746C6
:1085700039624F1CE6D0CC006118890051184C6854
:1085800065194D604C46DDE7684F4E4605953E60E7
:1085900009986249089D684C079E08602570002E66
:1085A00000D055E105980499431A5A1E9341DBB255
:1085B000069301235B429C465E4E604F36685748E7
:1085C00004965D4C594E3D68076824783668BB4672
:1085D0000021059F039400968946029B013BDBB274
:1085E0000293FF2B00D1ADE0049CDB00E418A2460F
:1085F000644601343FD06646F4006444A4002C195C
:10860000216AA368E068E0468C465E469A1B4C49A6
:108610001202120A8A4263D81018606001214E4685
:1086200001204942A660E660207521627A1C6DD067
:10863000F900C91989006918626848683E1C8242BD
:1086400008D855E0D900C9188900691848689042CF
:1086500059D21E1C0B6A121A581CF3D12362F30064
:108660009E19B600AE19414662603B1C31621F1C68
:1086700064460134BFD15646337872789A42ACD002
:108680005A0056465446D21864680133B178D20075
:10869000DBB2A218337099423CD051683B1C88462B
:1086A00011780129E3D14346DC004444A4002C198D
:1086B000217D3B1C0029DAD19368A360D068E0607B
:1086C000166926615269E261039A002A9DD000234F
:1086D0005E46A1609A1B1A491202120A8A429BD96D
:1086E000F31A1B021B0A83420AD2C01A606095E784
:1086F000821A4A6043462762444600941F1CB7E72B
:108700004B4663608AE7801A4860A7E743460093B8
:108710001F1CADE748463070BFE7C0466C20002004
:1087200080200020812000208C2000208420002038
:10873000782000207C200020882000207420002049
:10874000FEFF7F0000986349059A0860974200D1B8
:108750006EE07C1C00D1BAE05F4DFA002B68D7199F
:10876000BF00DB195C685D4A5D4B5E4E9A5831680C
:108770005D4D571A3F023F0A28780337B846002854
:1087800021D18020D1264002B6009851C126B600E2
:108790009851C02755488026B6027F00C651066012
:1087A000012018602F200138C046C046C046C04690
:1087B000C046C046C046C046C046C046C046C04689
:1087C000F1D101232B704346A34200D2231C5B1836
:1087D0001B024349A8201B0AC0000B503F489B1AAC
:1087E00009581B02891A0902090A03311B0A994216
:1087F00022D9802180233D4A89025B00D1501BE0B1
:10880000E900491989005118271C096A4C1C02D03B
:1088100089460C1CA9E6324C0125A56089460C1C32
:10882000002108950991A0E647464146C446ECE779
:10883000069B002B00D08CE72D4C002323700BB03F
:108840003CBC90469946A246AB46F0BD0022FFE5EF
:10885000214A012317685B424A46059D00240026F1
:10886000181CBC461BE0EB005B199B006344596875
:10887000039FB94222D87A1A03921F6A1A696418B0
:108880005E601E75B846002A07D006991862671800
:108890003F023F0A9F60DA60281C454642466B1C37
:1088A000E1D10C4C0595012584462260069583E6AE
:1088B00000240025039407950A49D7E5C91B84467F
:1088C00004485960012102600595069174E6FFF79E
:1088D000F5FCB1E78420002074200020040500008E
:1088E000001001406C2000209420002000E100E0F6
:1088F00088200020F0B557464E464546E0B48146F4
:108900008A4690461F1C0720990704D01CBC90463D
:108910009946A246F0BD002BF8D0FFF7CFFC314BB3
:10892000089A50461A60304B514618702F4B1F6002
:10893000002955D05146CA0053189B003C1C002505
:10894000002624352670267524349D42F9D15244E0
:108950009200274BBF1803221A70264B391C1F6048
:1089600043465A0042441831D200796089188A1867
:10897000F9607A610121204A494211601F4A0023AF
:1089800013701F4A3B7013707B703B727B723B7499
:108990007B7480221B4BC021404652034900B870B3
:1089A000B872B8745A50C52189005858FF24A043A2
:1089B000C024204358501A60A121134AC9004846D8
:1089C0005050C42189005C5810482040C024240223
:1089D000204358500E4B0020D2580E4B1A6095E79A
:1089E0000022B4E7702000208220002074200020A4
:1089F000782000207C20002084200020802000207F
:108A00008120002000E100E000100140FF00FFFF96
:108A1000040500006C200020F0B5174B94461C683C
:108A2000002C1CD0002A18D0002816D0134B1E781A
:108A3000002E10D02378002B13D02434002307E01D
:108A4000271C2434251C243D2D781A1C002D0AD007
:108A50000133B342F4DB0420F0BD0720FCE708201B
:108A6000FAE7271C002201233B7063467970BB6143
:108A700002600020F0E7C046742000208220002021
:108A8000F0B5474680B43D4B1C68002C47D03C4BAA
:108A90001D780723854203D8181C04BC9046F0BDFE
:108AA0000429F9D9C3001B189B00E4182578082372
:108AB000012DF1D16378012B33D000239846314B3F
:108AC0005C681023E405E40D2FD12F4C2668F618BE
:108AD0007378B4785D1C2C1B671EBC416442254032
:108AE0003478AC421FD05C00E4187368E4001C19B1
:108AF0000423002CD0D0012323706060234B244832
:108B00004746C358E160A360626180218023214A07
:108B10005B00490327617570D1500023BCE708232F
:108B2000BAE78846CBE70423B6E7103CE3B25DB270
:108B3000002D13DBAD08C035164BAD00EB580325F7
:108B40002C40E400E3401C06A40FE4B20023012CF7
:108B5000BBD00823032CB8D01023B6E70F241C4049
:108B6000083C0D4DA408A4006419032564682B403B
:108B7000AB40DC40E4B2A409E7E7C0467420002023
:108B80008220002000ED00E07C2000200405000091
:108B90000010014000E100E018ED00E030B5334B7B
:108BA0001A68002A35D0324B19780723814201D840
:108BB000181C30BDC3001B189B009A5C0823012AB7
:108BC000F6D12C4B5A681023D205D20D25D12A4A52
:108BD0001168C9184B788C785A1C141B651EAC415F
:108BE000644222400C78944215D05C00E4184B6833
:108BF000E4001C190423002CDAD0022323706060E7
:108C000080234A7080211D4A5B004903D150002314
:108C1000CEE70823CCE70423CAE7103AD1B24BB21F
:108C2000002B13DB9908C031144B8900CB5803216A
:108C30000A40D200D3401A06920FD2B20023012A72
:108C4000C5D00823032AC2D01023C0E70F230B404E
:108C5000083B0B4A9B089B009B185A68032319404A
:108C60009940CA40D2B29209E7E7C046742000207A
:108C70008220002000ED00E07C20002000E100E0E8
:108C800018ED00E029DF704728DF7047F8B54F4640
:108C90004646C0B46F4C814625788846161C1F1C7A
:108CA000002D15D1131C3B4319D1022323704046DC
:108CB000FFF7EAFF002835D1002E00D0C6E0002FD4
:108CC00000D0B8E049460B78042B00D0AEE049E074
:108CD000062D00D9ADE0604BAD005B599F460123E6
:108CE00023705E4B586980235B05411C00D1A5E0D1
:108CF00019690904090C03F05BF880235B051D6901
:108D000019691A69431E2804000C09045843090C08
:108D1000434692B259439208FFF7B4FF002801D1AD
:108D2000022323700CBC90469946F8BD4B4B586902
:108D300080235B05411C00D186E019690904090CF8
:108D400003F036F880235B051A691969431E100485
:108D5000000C09045843090C03F02AF8FFF794FFAC
:108D60000028DFD107232370DCE780235B05186927
:108D700093000004000C484318184B465A881969A0
:108D80009208FFF77FFF0028CCD13E43EAD00623AC
:108D90002370C7E780235B051D69304A2D045069A5
:108DA0002D0C4D43411C4DD019690904090C02F0EA
:108DB000FFFF80235B05196901380904090C414351
:108DC000321C281CFFF75EFF0028ABD1002F32D1E8
:108DD0004A461378042B29D1D9E780235B051A6909
:108DE00041461204120C4A434588B60052199219A2
:108DF00090461A4A5069421C22D019690904090C8C
:108E000002F0D6FF80235B05196901380904090CBB
:108E100041437619711840463A1CFFF733FF00288A
:108E200000D07FE749460B78042BB0D00523237090
:108E300078E7032076E70423237073E758695CE73B
:108E40005869DFE75869B4E758697BE70323237063
:108E500068E7C0467D21002090BF0100001000108F
:108E6000F8B5384D2B789A00D3189B00EB181C1DD1
:108E70001B79E668042B38D0052B14D00F20022B69
:108E800000D0F8BD304B20691B8862889B02C11856
:108E9000A088D21A8619F0182C4B9A423AD8920818
:108EA000FFF7F0FE1CE080277F053969301C0904BC
:108EB000090C02F07DFFA388011C9E193A693B69E9
:108EC0001204120C1B04481C4A431B0C43436088C9
:108ED000B21A86199B1B92089B08201CFFF7D6FE2E
:108EE0000028CED10123AB70CBE7A268184913014B
:108EF000CB18198958895B68B34210D0022A12D066
:108F000080277F053969301C0904090C02F050FFE5
:108F1000011CD3E780225200FFF7B4FEE0E7414393
:108F200063889942EAD180235B051969301C0904E2
:108F3000090C02F03DFF044B1B88C018FFF7A4FE8C
:108F4000CEE7C046982000207E210020FF030000CD
:108F500064210020F0B544465F4656464D46F0B4C5
:108F6000634C85B0A378002B27D0624B0022197880
:108F7000A270082928D0022844D003281DD12378C4
:108F80009A00D3189B00E418251D6B780133DBB2DF
:108F90006B70032B00D19DE0FFF762FF021E0CD027
:108FA00011280AD0AB68201C21796C881E012B691E
:108FB0000094514C0C303459A04705B03CBC90464D
:108FC0009946A246AB46F0BD022800D04B4B1A7022
:108FD0006378002BF1D0FFF743FF021EEDD011287C
:108FE000EBD023789900CB189B00E418E76821792F
:108FF0006369201CE4883E0100943F4C0C303459D6
:10900000A047DAE72578A8004619B600A619029607
:10901000321C3B4E834637880120B8468044B24616
:109020004646B6B25746B0463E80029E0432367976
:10903000022E42D0052E3AD0042E3AD1072906D06E
:10904000568840468002B04228DB002926D1002104
:109050001970534619806378013B63706B1CDBB257
:10906000092B01D92B1C093B237096681369101C2E
:10907000029F5288397900921F4A36010830B6584B
:109080000022B047584643199B00E31800220120F4
:109090001A71DA80D8601A615A611A816378002BDC
:1090A00000D18AE7A378002B00D086E793E7072951
:1090B000CDD000210029F1D0C9E750884746BF0232
:1090C0000390B846039E4146FF17C00FB142474187
:1090D000391CEFE7A9686A880E012B692179009293
:1090E000054A201C0C30B4580D22A04765E7C04645
:1090F000982000207D210020642100207C21002078
:109100007E21002010B5554C00222C2022544020F6
:1091100000232254422023524420235250495420F9
:10912000225456200B802352012158202270627055
:10913000A2702271E38023616361238122766383BD
:109140006362A362A383E385A363E3632386E3648B
:109150002365E16021626163A164E16523526820B7
:1091600022546A2023526C2023527C2022547E20D9
:10917000235284202150882023508C20235080208B
:1091800023529020225492202352982021509C2038
:109190002350A020235094202352A4202254A62000
:1091A0002352AC202150B0202350B4202350A820BB
:1091B0002352B8202254BA22A352C022A150C42262
:1091C000A350C822A350BC22A352264A236663663A
:1091D0006367A36721671380234B5869431C36D00C
:1091E00080235B0519690904090C02F0E1FD802167
:1091F00049050A69831E1004000C58431B4B0022CA
:1092000018601B4B1A601A819A815A81194B0822E7
:109210001A70154B5869431C1DD009690904090CC3
:1092200002F0C6FD80235B051A691969431E10040C
:10923000000C09045843090C02F0BAFDFFF724FDA5
:10924000002803D10C4A0123A370137010BD8023A2
:109250005B055869CBE74869E4E7C04698200020E1
:109260007E210020742100200010001078210020B1
:10927000642100207D2100207C210020074B1A78EA
:109280000823002A01D1181C7047002804D0044B81
:109290005B7803600023F6E70E23F4E77C210020CF
:1092A0009820002073DF7047F8B5051E00D195E0C7
:1092B000002900D192E04A48002404704948026025
:1092C000494A1360494A131C51C951C391C991C3FA
:1092D000C0C9C0C3D068002800D074E00023137256
:1092E0009369002B00D176E0D469002C00D172E0A4
:1092F000002107223E48FEF75BFF3E4B3E4A3F4EB1
:109300001A603F4A00219A60301C3022FEF750FF5D
:109310002B782A1C3370AB781032B370EB78F37073
:109320006B787370331C103381CA81C3331C0833CC
:10933000103A12CA12C3331C1833083281CA81C3CF
:10934000696A002911D02F4B2F4C7362696A9C60A7
:109350000A881A8088889880002806D000238F68A1
:10936000FA5CE25401338342F9D1AA6A002A14D08C
:10937000264B2748B362AC6A9860A18899802288FE
:109380001A800023002905D0A768FA5CC254013373
:109390008B42F9D12C23EA5CF254286A002806D0CB
:1093A0001C4B33622A6A5188598012881A80696876
:1093B000002903D0184B73606D687560301C002164
:1093C00000F02CFBF8BD1169002900D186E79369F4
:1093D000002B00D088E70023137589E70E20F1E702
:1093E00088220020BC210020E4210020F021002060
:1093F000E8210020342200201022002080210020BB
:1094000068220020B0210020C021002090220020EE
:10941000442200208C22002030220020F0B5474654
:1094200080B4784C88B0207001A8FFF727FF00288F
:1094300005D10199002906D0734B01221A7008B09A
:1094400004BC9046F0BD714A0021101C90460722D2
:10945000FEF7AEFE6E4E7378002B33D123786D4F3E
:10946000012B59D0327A002A01D1022B6FD0327DE4
:10947000002A01D1032B6FD03A68002A03D0023BA7
:10948000012B00D888E0644B00221A7002AD18222C
:10949000281C0021FEF78CFE227800232B706B60C5
:1094A0002B72EB60022A1AD0032A62D0012A58D00C
:1094B000002A29D13B68002B02D0584A10789847DF
:1094C0000020BCE72378534F012BCBD13A68002A08
:1094D00020D0534907200B7090472378C0E7F368EA
:1094E00032692B824F4B6A821A79002A02D11A7B89
:1094F000002A06D03278002A03D04B4A1278002A7C
:1095000070D0464B02221A70281CFFF7CBFE0028B1
:10951000D0D094E7424B1A707378002B12D041469A
:109520004B78002B4BD18B78002B48D1CB78002B7C
:1095300045D10B79002B42D14B79002B3FD18B7950
:10954000002B3CD102232370327A002A94D10323CA
:109550002370327D002A8FD1304A0023237013708C
:109560008AE76B822B822D4B414669602A701A7004
:10957000CAE7F2692B4BB1696A821A792982002AFB
:1095800019D03278002A03D0274A1278002A18D03E
:10959000224B03221A70B7E73378002B00D172E711
:1095A000214B1B78002B00D06DE71B4B01210620BF
:1095B000197090476AE71A7B002AE2D1E8E7012395
:1095C0005AE71A480222EB60002104232A72C37072
:1095D00000F024FA002800D031E7104B05221A7061
:1095E000227865E711480222042600212A72EB60E6
:1095F000C67000F013FA002800D020E7074B22784D
:109600001E7055E78822002089220020E8210020D2
:10961000F0210020BC210020652200209C22002097
:109620006422002034220020E0210020802100203C
:1096300008B50388112B35D0192B06D0102B00D07C
:1096400008BD82882A4B1A80FAE78379002BF7D16C
:10965000284A1278022A40D0032A35D0012AEFD1B5
:10966000254A1178002912D0244B587800283CD183
:109670009878002839D1D878002836D11879002870
:1096800033D15879002830D19B79002B2DD102207D
:10969000FFF7C4FE0028D3D0194B1B68002BCFD096
:1096A0009847CDE7174B00221A70174B5A68124B98
:1096B0001A700F4B82881B889A42C1D10120FFF794
:1096C000ADFE0028E8D1BBE7104A1370104B1B68B1
:1096D000002BB5D000209847B2E70C4B03201A703E
:1096E000FFF79CFE0028D7D1AAE701391170E5E702
:1096F000602000208822002066220020E82100202F
:10970000E4210020E0210020F02100209C22002004
:10971000BC210020F0B5474680B4023888B001284B
:1097200003D87B4C2378002B03D108B004BC9046AF
:10973000F0BD002368462370FFF7A0FD002820D16C
:109740000099002923D001232370EEE7EB682A69F2
:109750002382704B62821A79002A02D11A7B002A76
:1097600007D02A78002A04D06B4A1278002A00D148
:10977000BDE06A4B02221A70201CFFF793FD0028FF
:109780003CD0674B1B68002BCFD09847CDE7654A8C
:109790000021101C90460722FEF70AFD624D634E21
:1097A0006B78002B31D13378614F012B3CD02A7A72
:1097B000002A01D1022B52D02A7D002A01D1032B8D
:1097C00052D03A68002A02D0023B012B6FD9594B84
:1097D00000221A7002AC1822201C0021FEF7E8FCBF
:1097E00032780023237063602372E360022AADD0D5
:1097F000032A3ED0012A52D0002ABDD13B68002B5B
:1098000093D0464A107898478FE73378484F012B1A
:10981000CDD13A68002A05D0474907200B70904700
:109820003378C2E7444B1A706B78002B12D0414654
:109830004B78002B48D18B78002B45D1CB78002B6F
:1098400042D10B79002B3FD14B79002B3CD18B7946
:10985000002B39D1022333702A7A002AB1D1032395
:1098600033702A7D002AACD12C4A00233370137048
:10987000A7E7EA69274BA96962821A792182002A3F
:1098800002D11A7B002A06D02A78002A03D0224A65
:109890001278002A1AD0214B03221A706CE76382D7
:1098A00023821E4B4146616022701A7064E72B7858
:1098B000002B8CD0184B1B78002B88D11D4B01211D
:1098C00006201970904785E701237AE71B4802229A
:1098D000E360002104232272C37000F09FF8002887
:1098E00000D04EE70D4B05221A70327884E71348FA
:1098F0000222042500212272E360C57000F08EF878
:10990000002800D03DE7054B32781D7074E7C04653
:109910008922002034220020E02100209C22002007
:10992000E4210020E8210020F021002088220020EE
:10993000BC2100206522002064220020802100201C
:1099400072DF704779DF70477DDF704765DF7047F2
:10995000F0B55F4656464D464446F0B483B00C9F82
:109960008A46994639780388051C161C8B46002BBD
:109970003CD000229046002403E02B880134A3420F
:109980002ADD6B68A1005918042201A802F0C0FA70
:1099900001A869460022FFF7D9FF002827D16946B0
:1099A0000B78B342E9D14246002A27D03A7893197E
:1099B0001F2B30DC4A4401A86946FFF7C7FF002887
:1099C00015D169463A780B780134D3183B702B884F
:1099D00001229046A342D4DC4346002B06D03B78BC
:1099E0005946013B4A465B1A5A441370002003B0A3
:1099F0003CBC90469946A246AB46F0BD3B789A19CE
:109A00001D2A08DC9A1C01333A70DBB252464946E3
:109A1000CA543A78CEE70C20E9E7C046F0B556467E
:109A20004D4644465F46F0B49BB00023041C04AD91
:109A300068460E1C2B700376002C00D1BFE0E37843
:109A4000590700D4A3E02378002B00D0E4E0A278EB
:109A5000002A00D00AE1E278002A00D09FE0626884
:109A6000002A0FD012781C2B00DDD3E00AAF0221B0
:109A7000F954591CC9B20A207854D91C0233DBB2FC
:109A80002970FA542389002B00D0BAE1238A002BD5
:109A900000D046E2238B002B00D05BE2236A002B30
:109AA00040D02A780C20971DBA461F2F70D81988ED
:109AB000072005296CD97D4F7F18BFB2B8467C4F6F
:109AC000BC46B84564D95F88B846052F60D9774F42
:109AD000B946C1444F46BFB2674559D9754FB942DF
:109AE00003D0B84501D0414552D80AAF0520B8543B
:109AF000901CC0B228708146501CC1B2122078540C
:109B0000198804328C4649467818614601706146CE
:109B1000090A41705B88D2B2BF183B7052461B0ADB
:109B20007B702A70606A8046002828D001792B78E3
:109B30008F1C9A1CFFB2D7190C201F2F28DC0AAFEC
:109B40000331F954591CD2B2C9B2FF2078542A709B
:109B500040460188BA1804331170DBB2090A51700B
:109B60002B708288002A0AD0816800290FD0F8184B
:109B700002F0CEF941468A882B78D3182B702C231B
:109B8000E15C0AAF002900D06FE1B94619E0072077
:109B90001BB03CBC90469946A246AB46F0BD0AAF0E
:109BA0000221F954991CC9B2581C8846C0B201213F
:109BB00003333954DBB240462B703A544FE700244C
:109BC000A146002E00D128E2F478002CDFD16B46AC
:109BD0001C763378002B00D0D5E1B378002B00D071
:109BE000FBE1F378002B0FD012A880460222611C03
:109BF00002554746A21C0120C9B203347854D2B2A0
:109C0000E4B268460476BB547368002B63D01B78BB
:109C10001C2C51DD0C20BBE763780C201D2BB7DC1E
:109C200012AA68461D232A30111C9046171C138067
:109C3000FFF78AFE0028ABD12378022B00D157E230
:109C40006378002B02D008221D2B02D940460388DE
:109C50000822DBB2591C0AAF3970694629310A70F3
:109C60002A7802329B18DBB22B70F0E60C201B2BFB
:109C700000DD8DE712A9081C8846FFF763FE002867
:109C800000D085E72B780AAF0322FA545A1CD2B2CF
:109C90001921B9544046991C0288C9B27F1804336F
:109CA0003A70DBB2120A7A702B70D4E67FF3FFFFB2
:109CB0007DF30000FFFF000012A902220A5588462A
:109CC000621CD2B247460A21B954E21C02346846EB
:109CD000E4B202763B553389002B00D0AAE0338AE8
:109CE000002B00D003E1338B002B00D099E1336AC5
:109CF000002B46D06846027E0C20911D1F2900D9FA
:109D000046E71C880720052C00D841E7DA4F3F19A9
:109D1000BFB2BC46D94FBA46BC4500D838E75F88C9
:109D2000BC46052F00D833E7D34FB846E04447463A
:109D3000BFB2574500D82BE7D14FBC4204D0BC4539
:109D400002D0644500D923E712AC0520A054A046F8
:109D5000541CE4B2901CC0B26F46A4464446387608
:109D60006444122727701C8840440470240A4470FD
:109D70005888131DDBB2434418706F46000A5870B0
:109D80003976746A002C2DD068462179037E8F1CA9
:109D90009A1CFFB2D7190C201F2F00DDF8E612AF76
:109DA0000331F954D2B26846591C0276C9B2FF2079
:109DB00078542188B846424411700433090A51701E
:109DC000DBB269460B76A288002A0BD0A168002975
:109DD00000D1DCE6F81802F09BF8A2886C46237EDE
:109DE000D31823762C23F05C002800D034E1684699
:109DF00012A9037E8846424629784846FFF7A0FD0F
:109E0000C6E6082109190AAF8846081C00950221F8
:109E100002223B1CFFF79CFD002800D0B8E600950D
:109E20004046062110223B1CFFF792FD002800D17E
:109E30002CE6ADE612A9341C884606AA0834009226
:109E4000201C022102224346FFF782FD002800D099
:109E50009EE606AB0093201C062110224346FFF726
:109E600077FD002800D13AE792E6A36A002B00D1E3
:109E70008DE600228C46904616212C2228788A46B0
:109E8000934600E0A36A41464A00424492009B1870
:109E900099469B88421C03333B54831CDBB2D2B2ED
:109EA0005146B9542B7049460A88FB1804301A7081
:109EB000C0B2120A5A7028708A88002A0FD08968A6
:109EC000002900D163E6381802F022F84A462B78C0
:109ED0009088C0185B46E35CC0B228709C4643463D
:109EE0000133DBB298466345CCD3B94669E6341CEE
:109EF00006A8103412AF00900321201C02223B1C44
:109F0000FFF726FD002800D042E606A90091201C9C
:109F1000072110223B1CFFF71BFD002800D1E2E6C1
:109F200036E6102212190AAF9046101C0095032144
:109F300002223B1CFFF70CFD002800D028E600950C
:109F40004046072110223B1CFFF702FD002800D1EC
:109F5000A0E51DE618231B190AAF9846181C0095AA
:109F6000142102223B1CFFF7F3FC002800D00FE66F
:109F700000954046152110223B1CFFF7E9FC002804
:109F800000D18BE504E673780C201D2B00DDFFE586
:109F900008AC68461D234A30211C2380FFF7D4FCFF
:109FA000002800D0F4E53378022B00D1A6E07378C6
:109FB000002B02D008221D2B01D9238808226846D5
:109FC000047EDBB2591C023412AF39701B1969468A
:109FD0004931DCB20A700476FFE50C201B2C00DD51
:109FE000D6E508A8FFF7AEFC002800D0D0E569460A
:109FF0000C7E12AA032313559046631CDBB2192270
:10A000004746FA54A31C0A8CDBB2434404341A704A
:10A01000E4B2120A5A700C76E3E56A46137E002217
:10A02000EAE612AA341C904606AB18340093201CB2
:10A03000142102224346FFF78BFC002800D0A7E53D
:10A0400006AF0097201C152110224346FFF780FC25
:10A05000002800D14BE69BE5B26A002A00D196E5C4
:10A060006F463B7E0390162112A82C2700248046C1
:10A070008A46BB4607E0C0467FF3FFFF7DF3000042
:10A08000FFFF0000B26A67003F19BF00D719BA8806
:10A0900040460332C2549A1CD2B269460A76591C11
:10A0A000C9B28C46604451460170398842441170EF
:10A0B0000433090A5170DBB26A461376BA88002A63
:10A0C00010D0B968002900D161E54344181C01F0A3
:10A0D0001FFFBA886F463B7E5846D318305CDBB210
:10A0E0003B76039001340399E4B28C42CAD382E6F2
:10A0F0003B8809221D2B00D8ABE5A1E52388092266
:10A100001D2B00D85BE752E775DF704776DF70479D
:10A110007ADF70477BDF704710B5194B82B0188823
:10A12000184B984215D0184B184C1A780132D2B2FD
:10A130001A70217B91420ED200221A70237C002BD0
:10A1400013D16369002B04D0002269460A70684667
:10A15000984702B010BD0E49FFF7D6FF0028F8D08F
:10A16000A369002BF5D09847F3E73B21FFF7CEFF1B
:10A170000028E6D0A369002BE3D09847E1E7C0466A
:10A18000CC220020FFFF0000A8220020AC220020EB
:10A19000D022002030B51D4B1D4A5B88118883B04A
:10A1A000994210D852889A420DD31A4B5B69002B02
:10A1B00004D0012269460A7068469847164C00236D
:10A1C000237003B030BD144C2378002B09D0114B01
:10A1D0005B69002BF3D0002269460A7068469847F5
:10A1E000EDE70E4B0B4D1B78002B0CD0A9680C4BE8
:10A1F00000221868FEF744FC0028E0D0AB69002B71
:10A20000DDD09847DBE76968F1E7C046A02200206F
:10A21000D0220020AC2200209D220020A822002075
:10A22000C822002070B51649021C0B1C70CA70C3EE
:10A2300032CA32C312681A600168124B00221A70C7
:10A24000002916D0104C0822201C01F061FE201CB1
:10A25000FFF75EFF00280BD10C4B012252421A80FF
:10A260000B4B00221A700B4800210B4AFEF7D4FB5F
:10A2700070BD0548FFF74EFF0028EDD0F8E7C04657
:10A28000AC2200209D220020D0220020CC220020E1
:10A29000A8220020C822002019A1010010B50388BF
:10A2A000112B36D022D9122B18D0502B1DD1224C75
:10A2B000C288E3899A4218D1C38B022B15D120237F
:10A2C000C35CDA070FD41D4B1868FEF767FC002843
:10A2D0000BD0A369002B08D0984706E0811D082207
:10A2E000174801F015FEFFF755FF10BD102BFCD1EC
:10A2F0008288144B011C1A8016310822104801F084
:10A3000007FE114B00221A700B4BDB89002BECD19E
:10A31000E9E70C4B012252421A800B4B00221A70C3
:10A32000064B1868FEF73AFC0028DED0024B9B690A
:10A33000002BDAD09847D8E7AC220020C8220020B2
:10A34000A0220020CC220020A82200202EDF70476F
:10A3500051DF704710DF704761DF704708B5081C98
:10A36000111C00E000BF08BDF0B556464D465F46E3
:10A370004446F0B429492A4E0A6889465542554157
:10A38000284B83B0196898464B424B41264ADBB2B2
:10A39000EDB29A469346002D0DD0514600291CD0AF
:10A3A00003B03CBC90469946A246AB46F0BD002D9A
:10A3B000F6D10122924668466C46FFF7C9FF052890
:10A3C00029D000281DD000210022FDF7FBFE5146B8
:10A3D000002903D0002DE3D1EDE76C465A463768DB
:10A3E0001388381C69462380FFF7B6FF0528DED0A6
:10A3F00000280BD000210022FDF7E4FE00239A463E
:10A40000C9E74B4600981B689847E0E74346381C6D
:10A410001B689847F2E70125D9E7C046E0220020F3
:10A42000DC220020E4220020DA22002038B5041CBF
:10A430000720002901D08D0700D038BD09480160F0
:10A440000949201C0A80094A09491360FFF782FF65
:10A450000028F2D1074B012216201A70FFF776FF71
:10A46000EBE7C046DC220020DA220020E8220020B0
:10A470005DA30100D8220020002803D0024B186001
:10A48000002070470E20FCE7E4220020002803D0C3
:10A49000024B1860002070470E20FCE7E0220020ED
:10A4A00008B50A4B1B68002B08D09847002800D13C
:10A4B00008BD00210022FDF785FEF9E7044B1B785B
:10A4C000002BF5D0FFF750FFF2E7C046E82200204E
:10A4D000D822002048DF704700B5022383B00093E4
:10A4E000002100220023002001F062F80749084AF9
:10A4F000002001F025FC00F059F8FFF7EBFF0028E1
:10A50000FBD000210022FDF75DFEF6E7ACBF0100A5
:10A51000C0BF010076DF704777DF704778DF704794
:10A520007ADF70477CDF704760DF70477047C04656
:10A5300008B500210022FDF745FE08BD10B5041C3A
:10A54000FEF708FD201CFFF7E5F810BD10B5041C50
:10A55000FFF7A4FE2388102B0ED0112B03D101226C
:10A56000074B52421A80201CFFF762F800F01AFCD9
:10A57000211C00F017FB10BDA288014B1A80F2E7E6
:10A580006220002008B50378002B00D008BD064BE0
:10A590003B211888FFF7BEFF0028F7D000210022DA
:10A5A000FDF710FEF2E7C04662200020F0B54746F6
:10A5B00080B4924E98B09249321C002001F0C0FB4A
:10A5C0000E20904948220023FFF730FF002800D0DA
:10A5D0000FE10CAC0822201C0021FDF7E9FD2278D8
:10A5E00001231343201C2370FFF79EFF002800D097
:10A5F000FAE08548FFF740FF002800D0EFE08348ED
:10A60000FFF744FF002803D000210022FDF7DAFD08
:10A61000002300930020062105227D4BFEF76AF9F6
:10A62000002803D000210022FDF7CCFDFEF76AFDD3
:10A63000002800D0CEE004AD2A780F2301219A43F0
:10A640000A43744F134010221343381C2B7001F03F
:10A6500070FC391C82B2281CFFF764FF002800D070
:10A66000B3E0C0204000FFF759FF002800D0A7E06A
:10A67000201C00210822FDF79BFD1023238050237E
:10A6800063800423A380C8235B00201CE380FFF7C2
:10A6900047FF002800D08EE00020FFF73DFF002894
:10A6A00003D000210022FDF78DFD6F460023FB72D1
:10A6B00003AB181C58490422984601F029FC0021DC
:10A6C0003022201CFDF774FD0223237001230B3779
:10A6D000A37006222382201C43460021E27067609B
:10A6E0006361FFF79BF9002860D10023AB600493FE
:10A6F0006B606B61AB61EB6101232B7296235B0096
:10A70000EB6096239B002B61201C291C434A0023ED
:10A71000FEF7CAFD002803D000210022FDF752FDFC
:10A7200000F026FB1C22201C0021FDF741FD002328
:10A73000A02292020C932374394B6260F022120320
:10A740006361384BA260201C03222273A361FFF7D0
:10A7500069FD002803D000210022FDF733FD02200F
:10A76000FEF75CFE002803D000210022FDF72AFD41
:10A77000321C2D49002001F0E3FA00F0ABFC321C42
:10A780002A49002001F0DCFA00F0D6FD321C2849ED
:10A79000002001F0D5FA00F099F82649321C00207B
:10A7A00001F0CEFA18B004BC9046F0BD00210022A2
:10A7B000FDF708FD99E700210022FDF703FD6BE797
:10A7C00000210022FDF7FEFC52E700210022FDF7E8
:10A7D000F9FC46E700210022FDF7F4FC2BE70021FD
:10A7E0000022FDF7EFFC0AE700210022FDF7EAFC5A
:10A7F000FFE600210022FDF7E5FCEAE6E0BF0100EC
:10A80000CCBF0100EC2200204DA501003DA50100B8
:10A8100034230020C0BF0100C8BF01002DA50100E6
:10A8200085A5010031A50100E8BF010000C00100BD
:10A8300010C0010020C0010010B500F0C5FB0F4C96
:10A8400082B20F492280002012B201F079FA0D4B3A
:10A850000021625E00215B5E9A4204DA00F0CCFDCA
:10A86000002807D010BD00F0C7FD0028FAD000F086
:10A87000A5FDF7E700F084FDF4E7C046EC250020D5
:10A8800034C00100F425002010B584B001AC0021D3
:10A890000C22201CFDF78CFC0123237002230749A6
:10A8A00023720198A268616000F0CAF9002803D001
:10A8B00000210022FDF786FC04B010BDF425002025
:10A8C000014B18807047C046F425002010B50C4C91
:10A8D0000121201C0B4AFEF79FF8002803D000211D
:10A8E0000022FDF76FFC8021206809020022FEF79C
:10A8F000C7F8002803D000210022FDF763FC10BD3B
:10A90000F025002039A80100A0DF7047A2DF7047C2
:10A91000A6DF704763DF7047F0B54D4644465F469B
:10A920005646F0B4041C91B00D1C0E20002C11D022
:10A930001022724909A8904601F0EAFA2D68012315
:10A940005B42A561A38209A8211CFFF7E3FF071E54
:10A9500007D0381C11B03CBC90469946A246AB4685
:10A96000F0BD237804ADAB7080239B00A21C0120B6
:10A97000291C2B80FFF7C8FF071EEAD123786A46FF
:10A9800093725F4B0021138109A81C22FDF710FC74
:10A9900009AB1A7808231343FD2201AE134009AA1C
:10A9A000137000210322301C0A970C970D970E9705
:10A9B0000F97FDF7FDFB33780F2291469343012259
:10A9C0009246524613434A461340102293465A4633
:10A9D0001343337073784A469343524613434A46AF
:10A9E00013405A4613437370B378062293430422EC
:10A9F0001343DBB208229343424693435246134328
:10AA000000211422281CB370FDF7D2FB02AB049383
:10AA100003232B81AB813B4B6F812B616E60231C29
:10AA2000608809A92A1C0C33FFF770FF071E00D0AD
:10AA30008FE723786A469372334B0021138168466F
:10AA40000322FDF7B5FB6A4613784A469343524604
:10AA500013434A4613405A4613436A4613705378C9
:10AA60004A469343524613434A4613405A461343B9
:10AA70006A465370937806229343022291464A46CF
:10AA800013436A46937000211C2209A8FDF790FB2E
:10AA900009AA13785A46134309AA1370002100AB80
:10AAA0000322301C0A970C970D970E930F97FDF712
:10AAB0007FFB002333707370B378062293434A46BA
:10AAC0001343DBB208229343424693435246134357
:10AAD00000211422281CB370FDF76AFB02AB2B6027
:10AAE00001232B8114236F81AB816E606088231D4D
:10AAF00009A92A1CFFF70AFF071C2AE76CC00100FE
:10AB000001020000F82500200202000030B5041CFC
:10AB100085B0002819D0002917D08269002A14D0E6
:10AB2000CB8B0225AB430320012B0FD10C226846AF
:10AB30000021FDF73DFB194A6B461D701378082B69
:10AB400029D817499B00CB589F460E2005B030BD31
:10AB5000072369464B700132022301920B72201CBD
:10AB6000A369694698470020F0E706236A465370B8
:10AB7000F5E70523EDE70423EBE70323E9E70223E9
:10AB800069464B70EBE701236A465370E7E7002301
:10AB900069464B70E3E70720D8E7C046F825002058
:10ABA00048C0010070B5051C84B00C1C00281CD0E6
:10ABB00000291AD00B88112B13D0502B05D0102B45
:10ABC00001D18B88838204B070BDCB8802899A4200
:10ABD00011D082899A42F6D1FFF798FF0028F2D06F
:10ABE0000DE001235B428382EDE70E20002100226D
:10ABF000FDF7E8FAE7E7CB8B0320022B04D0002116
:10AC00000022FDF7DFFADEE701AE00210C22301C46
:10AC1000FDF7CEFA2122A25C2021615C1202012301
:10AC20000A4333701340012253407370AB69002B09
:10AC300003D0281C311C9847C5E70720DFE7C04632
:10AC400030B58FB002910190039200F0ABF8002371
:10AC50006946041C0B8209930A930B930C930D9382
:10AC600014D0828A1C4B08209A4201D10FB030BD0B
:10AC7000012209A801A901F04BF96A4601231382B8
:10AC8000127B142A04D98020C001EFE70E20EDE7E3
:10AC9000002A0CD0029900291CD06846253001F00A
:10ACA00037F96B461A7B1B8A6946D3180B8205ADB0
:10ACB000281C00211022FDF77BFAA38804AA2B8010
:10ACC0000123AB7009ABAA60EB60A08A291CFFF7D7
:10ACD0001FFECBE70148C9E7FFFF0000014000006D
:10ACE00000B583B0002817D0002915D00B78012BB0
:10ACF00008D0022B09D14B78072B06D81B4A9B00A2
:10AD0000D3589F464B78012B04D9072000210022FD
:10AD1000FDF758FA03B000BD0E20F7E74968684612
:10AD2000022201F0F5F8009800F03CFAF2E74B68D7
:10AD3000187800F0C1FAEDE700236A4613804968ED
:10AD40006846022201F0E4F86B460020185EFFF727
:10AD5000B7FDDFE74B68187800F0B4FADAE7FFF7E1
:10AD600093FDD7E700F070FAD4E7C0467CC001003D
:10AD700000B583B0002101A80422FDF719FA074BA2
:10AD8000074801A90193FFF7C7FD002803D0002160
:10AD90000022FDF717FA03B000BDC046E1AC010088
:10ADA000FC25002000487047FC2500203248F0B503
:10ADB0004D468146A120C000444680462F485F464C
:10ADC0005646F0B4A321802584468020C900A023E4
:10ADD000AD01A22640428A46F8240022DB05291C48
:10ADE0000027F60083465046195048461950012066
:10ADF0000138C046C046C046C046C046C046C046F0
:10AE0000C046C046C046C046C046F1D14046195073
:10AE100060461F50520805200138C046C046C04653
:10AE2000C046C046C046C046C046C046C046C046F2
:10AE3000C046F1D19859284202D058460243D2B2B6
:10AE40003C200138C046C046C046C046C046C04649
:10AE5000C046C046C046C046C046C046F1D1013CCF
:10AE6000E4B2002C00D0BEE7101C3CBC90469946D2
:10AE7000A246AB46F0BDC0460C0500001C05000014
:10AE8000F0B5A0238027A322BF01D200011CDB055F
:10AE90000120A1259F50194E08223C1C8446ED003C
:10AEA00015E05F512D200138C046C046C046C0465F
:10AEB000C046C046C046C046C046C046C046C04662
:10AEC000F1D1013AD2B249085C51002A05D060465E
:10AED0009C510842E5D19F51E4E723200138C04648
:10AEE000C046C046C046C046C046C046C046C04632
:10AEF000C046C046C046F1D1F0BDC0460C050000BA
:10AF0000A0238022A321DB059201C9005A50A12170
:10AF1000C9005A5030200138C046C046C046C0461D
:10AF2000C046C046C046C046C046C046C046C046F1
:10AF3000F1D1234B8021A0228901D205FA20D150E2
:10AF400040000138C046C046C046C046C046C04664
:10AF5000C046C046C046C046C046C046F1D1A02348
:10AF60008021A122DB058901D2009950154A0021D8
:10AF700099503C200138C046C046C046C046C04635
:10AF8000C046C046C046C046C046C046C046F1D1D5
:10AF9000A223A022D205DB00D3583C200138C046B2
:10AFA000C046C046C046C046C046C046C046C04671
:10AFB000C046C046C046F1D101205B0B98437047A4
:10AFC0000C0500001C05000038B5FFF799FF0028AC
:10AFD00007D100201849194A00F0B2FE184C201C75
:10AFE00038BDCC20FFF74CFF4420FFF749FFFFF7A7
:10AFF00087FF0028EDD0CC20FFF742FFBE20FFF7EF
:10B000003FFFFFF7D3FE051CFFF7D0FE041C231CF7
:10B0100024022A1C25430B49ACB2002000F090FE0C
:10B02000221C0949002000F08BFE0349074A00203A
:10B0300000F086FED3E7C046D0C00100ECC001009E
:10B04000FFFF00009CC00100BCC00100E4C0010083
:10B050001C4B1B78002B29D0632B0BD91A4B1B4A96
:10B060001B780121D35CA0229940A123DB00D205EB
:10B07000D15025E0144A1549127801208A5CA0219C
:10B080009040A122D200C90588509800C3185800EA
:10B090000138C046C046C046C046C046C046C0464D
:10B0A000C046C046C046C046C046F1D1064B074A1E
:10B0B0001B780121D35CA0229940054BD205D150C9
:10B0C0007047C0462026002018260020642000205B
:10B0D0000C050000F8B52E4CE021227849005018EC
:10B0E000A023DB0503218000C1500120051C9540F1
:10B0F000284AE0279D5065787F00EE19B600F15090
:10B10000061CAE409E50A578EE19071CAF40B60055
:10B11000F1509F50E578E0277F00EE19B600F1501E
:10B12000061CAE409E502579EE19071CAF40B600B4
:10B13000F1509F506579E0277F00EE19B600F1507D
:10B14000061CAE409E50A579EE19071CB600AF4014
:10B15000F1509F50E479E0267600A519A040AD009B
:10B16000E95098500C48195020209850E320C00016
:10B1700019504021995009480121094AFDF74CFC1A
:10B18000002803D000210022FDF71CF8F8BDC046BE
:10B19000642000200C050000140700001C2600207D
:10B1A00051B0010070B582B001AC2080224801216D
:10B1B00005780B1CAB40214A1D1CA023DB059D50CC
:10B1C00045780E1CAE409E5085780E1CAE409E50B9
:10B1D000C5780E1CAE409E5005790E1CAE409E50A8
:10B1E00045790E1CAE409E5085790E1CAE409E5097
:10B1F000C079814099502078114908706178002900
:10B2000013D0A121C90040205850202199500D4B46
:10B21000212118680022FDF733FC002803D000210B
:10B220000022FCF7CFFF02B070BDA121C900202091
:10B23000585040219950EAE7642000200C05000096
:10B24000182600201C26002038B518480121047853
:10B250000B1CA3401C1CA022154BD205D4504478D3
:10B260000D1CA540D55084780D1CA540D550C47840
:10B270000D1CA540D55004790D1CA540D55044792E
:10B280000D1CA540D55084790D1CA540D550C07922
:10B290008140D150074B1868FDF780FC002803D08F
:10B2A00000210022FCF78EFF38BDC046642000203C
:10B2B0000C0500001C260020014B18707047C0468A
:10B2C0002026002038B5052824D8154B80001B58AF
:10B2D0009F46A0248025E4052D05A123DB00E55031
:10B2E0006420FCF787FF0F4BE55038BDA024802574
:10B2F000E4056D05F1E7A0248025E405AD04ECE745
:10B30000A0248025E405ED04E7E7A0248025E405DA
:10B31000AD05E2E7002000210022FCF753FFE4E73F
:10B32000F4C001000C0500008021A123A022C90067
:10B33000DB00D205D150704708B5E622A023DB051B
:10B340000321D200995080200A4A40019850E520FC
:10B35000C00019508021C900995007480121074AAF
:10B36000FDF75AFB002803D000210022FCF72AFF3A
:10B3700008BDC0460C0500002426002029B30100AA
:10B3800008B58021A123A0224901DB00D205D150BC
:10B39000084BF021186809030022FDF771FB002813
:10B3A00003D000210022FCF70DFF034B01221A708D
:10B3B00008BDC046242600202826002008B50B4BD7
:10B3C0001868FDF7EBFB002803D000210022FCF7F2
:10B3D000F9FE074BA0228021D2054901D1508021DE
:10B3E000C900D150034B00221A7008BD242600204A
:10B3F0000C05000028260020014B18787047C04635
:10B4000028260020F0B546464F46C0B4624C83B0B3
:10B410002378061C8846171C002B1DD102225F4989
:10B42000226162615E4AA161E261A16480225D499C
:10B43000D200A362E3626362E365A365226263658F
:10B44000E16422655849E01D00F06BFD201C57495E
:10B4500000F067FD2023A371EFF31083012181F336
:10B460001088701C46003618F600A61901937369FF
:10B47000012B55D0002B34D0022B27D10023F468A8
:10B48000B56899461BE0013B1B1B2D1BBD4200D933
:10B490003D1C9D4200D91D1C71682A1C081941469B
:10B4A00000F036FD6419A944A8447F1BB568631BEE
:10B4B0005A1E93415B421C40F460002F08D0336950
:10B4C000A342E0D8013B5B191B1BDEE7002291463B
:10B4D000019B83F31088484603B00CBC9046994604
:10B4E000F0BD3269F3689A423ED9013AD31A00227C
:10B4F00091469F42ECD8F568B3685C1BA74241D3E4
:10B50000726841465019221C00F002FD3D1B434663
:10B51000191970682A1C00F0FBFCB946F560D7E7E2
:10B520003269F3689A421AD9013AB468D31A994633
:10B53000BB4200D9B946F568641BA14519D37268AE
:10B5400041465019221C00F0E3FC4B461D1B4246AD
:10B55000111970682A1C00F0DBFCF560B8E7B468CC
:10B560001219013AD31AE2E7B1685218013AD31A14
:10B57000BDE771684A46481941464D4400F0C8FC91
:10B58000F560A5E771683A1C481941467D1900F03D
:10B59000BFFCB946F5609BE73C2A00200CC10100C6
:10B5A0003C2600202C26002018C101001CC10100EF
:10B5B000F0B5474680B42A4C051C207882B08846F6
:10B5C000171C1E1C002829D02269AA4245D9EFF376
:10B5D0001080012181F3108801900020002D0CD1F2
:10B5E0004519089BED006419E362019B83F3108801
:10B5F000002002B004BC9046F0BD6B1C5A00D3186A
:10B60000DB0042466800E2504219E318D2005F6056
:10B61000A2180023936216625362E1E70223114AE3
:10B6200023616361104BA261E361A26480230F4A2E
:10B63000DB00A062236260622365A065E062E264D1
:10B640006065E0650A49E01D00F06BFC201C0949BB
:10B6500000F067FC2023A371B6E701204042C8E751
:10B660003C2A00200CC101003C2600202C26002092
:10B6700018C101001CC10100F0B54D465F46564699
:10B680004446F0B483B0161C0C9A051C88469946B3
:10B690009346B14200D2E1E0081C0124311C00F0C5
:10B6A00087FB01348642F9D900944C4501D24A46C1
:10B6B00000920D9A01231A40019203D15B46002BA0
:10B6C00000D08BE0EA689246002A7ADBAF684346F6
:10B6D0004A46B846A9460124151C1F1C01E07443C4
:10B6E000013D381C211C00F063FB8642F7D9012D77
:10B6F000F5D83B1C5A4A47469846331C4D464646A9
:10B700009146984608E05246002A2ADB201C414612
:10B7100000F04EFB041E24D0301C211C00F048FB1E
:10B72000231C4343F61A4B46195C6B687A1C9A42F9
:10B730000AD82B68D955EB68AA609A4601239A4427
:10B740005346EB606B68171C9F42DCD13A1C28699A
:10B750002968FFF757FEAF68B84239D001235B4232
:10B76000EB60019B002B2CD05A46002A29D0009B6D
:10B770009B4526D91A1C20243B1C002690465F4678
:10B7800006E0EA68002A1CDB002F1AD0474518D9CA
:10B790006A68591C013F914207D82A68D454EB6863
:10B7A0006A680133EB60A9600B1C9A42E9D12869F1
:10B7B0002968FFF727FEAB68984241D001235B421E
:10B7C000EB6003B03CBC90469946A246AB46F0BD48
:10B7D000EB680022AA6000279A4694E70D9A20247D
:10B7E000920730D4009B9B4500D86BE7AF680022DE
:10B7F0003B1C9246271C5C46B346009E06E0EA6866
:10B80000002ADEDB002C24D0B44222D96A68591CFD
:10B81000013C914207D82A68D754EB686A68013323
:10B82000EB60A9600B1C9A42E9D128692968FFF7EF
:10B83000E9FDAB689842C1D15246AA600023DEE719
:10B84000AE6000239DE74B463024002BCAD0202455
:10B85000C8E75E461F1CA346924638E7012423E74B
:10B8600024C10100F0B55F46564644464D46F0B44B
:10B870009BB0039040230C1C03990AA80693002355
:10B88000924605900793099108939B4604272378D5
:10B890000134002B00D171E1252B1ED12378002625
:10B8A00002210822251C2B2B0BD02B2B0CD92D2B46
:10B8B0000FD0302B2DD10E4301342378251C2B2B98
:10B8C000F3D13E430134F8E7232B22D11643013450
:10B8D000F3E7012006430134EFE707980699421C7D
:10B8E0008A424DD805990B54089B06999B46012323
:10B8F0009B445846079208908A4244D058460028F4
:10B90000C5DA58461BB03CBC90469946A246AB46A9
:10B91000F0BD1A1C303A0024092A0BD8A2001419D1
:10B920006400E31801351C1C2B78303C1A1C303A9B
:10B93000092AF3D9002188462E2B02D14DE02B781D
:10B9400001351A1CBA43682AF9D0642B00D18AE069
:10B9500025D9732B00D1DFE055D9752B00D0C7E076
:10B96000504603681A1D0260196805A800940196E4
:10B970000A224346FFF780FE08998B466C1CBDE700
:10B98000021C8A42BAD105990998FFF73BFD079935
:10B99000884200D155E101235B429B46B1E7582B19
:10B9A00000D1A8E0632B41D0252BE7D10798069959
:10B9B000421C8A4200D8F9E0021C8A42DED1059975
:10B9C0000998FFF71FFD0799884200D0CCE0089B3B
:10B9D000002207929B466C1C90E76B78691C1A1C2E
:10B9E000303A0D1C092AACD8424691008A18520000
:10B9F000D31801351A1C2B78303A191C3039092913
:10BA0000F3D990469DE7702BB8D1504603686C1C63
:10BA10001A1D02601968002208230093019205A8EC
:10BA20001022FFF729FE089B9B4667E752461368E2
:10BA300050461A1D026007991868069B4A1C9A42D4
:10BA400000D8A8E00A1C9A4298D109980599FFF7F6
:10BA5000D9FC079A904200D086E00898002307930B
:10BA600083466C1C4AE751460B681A1D0A601B6826
:10BA7000DA17981802935040092800DC41E10123AD
:10BA8000A1461C1C0A2100F0E1F901340928F9DC67
:10BA9000231C4C469946C14579D3002C05D0029908
:10BAA000002901DB374200D0013CB20700D588E015
:10BAB0000120304200D18CE05B46002B00DA5DE7CC
:10BAC0000298002800DA0EE1374200D0C1E00323DB
:10BAD0003340022B00D1D7E000940A22019605A83A
:10BAE00002994346FFF7C8FD089A6C1C934605E788
:10BAF000782B00D042E75246136850461A1D026068
:10BB0000196805A80094019610224346FFF7B4FD7A
:10BB100008996C1C8B46F1E65246136850461A1D74
:10BB200002601C685E460BE0059B5854089E069B0D
:10BB30000136079208969A420FD0002E00DA85E06F
:10BB400020780134002800D180E00799069B4A1C28
:10BB50009A42E9D90A1C9A42EFD105990998FFF750
:10BB600051FC0799884205D001235B4208939B460C
:10BB70006C1CC3E600220792089EDEE75B46002BA2
:10BB800000DCBEE6079A002A52D19344B9E6C146CA
:10BB9000002C8AD083E7059B585408980792834667
:10BBA0000120834459460891069B4CE705990B54A4
:10BBB000089B07929B4601239B4458460890069990
:10BBC000FBE64346002B00D176E70120304200D04F
:10BBD00072E7002C00D16FE74C4500D86CE74B466C
:10BBE000079AB14658461E1C07E0002800DAA3E079
:10BBF000002C00D180E0B4427ED9069B511C013C50
:10BC0000994208D8059B202098540898069B01303B
:10BC1000079108900A1C9A42E7D105990998FFF705
:10BC2000F1FB079988429FD1002207920898DCE730
:10BC30000AA90398FFF7E6FB0899079A8B469344F5
:10BC40005FE6089B002207929B4657E6B3466C1CB2
:10BC500054E60799069B4A1C9A424BD82B23059819
:10BC60004354089907928B4601218B445B46089305
:10BC7000069B9A424CD05846002800DA7EE6032301
:10BC80003340022B00D027E74146002900D023E7AC
:10BC9000002C3BD0A14500D31EE7079A584606E08A
:10BCA000002849DB002C31D04C4500D814E7069B16
:10BCB000511C013C994208D8059B302098540898A3
:10BCC000069B0130079108900A1C9A42E8D1059919
:10BCD0000998FFF797FB0799884200D044E70022B4
:10BCE00007920898DCE70799069B40424A1C02909D
:10BCF0009A4209D90A1CBCE7331C83464E46994632
:10BD0000DEE601208146C6E62D23A8E70024E3E60F
:10BD100005990998FFF776FB0799884207D0012318
:10BD20005B42089301235B429B466C1CE6E5089B43
:10BD3000002207929B469EE783466C1CDEE5C046C8
:10BD40000EB400B582B003AB04CB111C01AA019361
:10BD5000FFF788FD02B008BC03B0184703210A486A
:10BD600002680A430260094802680A4302600849FF
:10BD7000084A094B9B1A03DD043BC858D050FBDC32
:10BD80000648804706480047240500405405004007
:10BD90003CC10100002000206C2000203182010005
:10BDA000C1800100FEE7FEE7FEE7FEE7FEE7FEE7F3
:10BDB000002934D00123002210B488422CD301245E
:10BDC0002407A14204D2814202D209011B01F8E7F3
:10BDD000E400A14204D2814202D249005B00F8E7AC
:10BDE000884201D3401A1A434C08A04202D3001BD8
:10BDF0005C0822438C08A04202D3001B9C0822430B
:10BE0000CC08A04202D3001BDC082243002803D048
:10BE10001B0901D00909E3E7101C10BC704700287A
:10BE200001D00020C04307B4024802A1401802908C
:10BE300003BDC046D90000000029F0D003B5FFF7CC
:10BE4000B9FF0EBC4243891A1847C046002941D0A9
:10BE500010B4041C4C40A44601230022002900D544
:10BE60004942002800D5404288422CD301242407AF
:10BE7000A14204D2814202D209011B01F8E7E40089
:10BE8000A14204D2814202D249005B00F8E7884215
:10BE900001D3401A1A434C08A04202D3001B5C088D
:10BEA00022438C08A04202D3001B9C082243CC08EA
:10BEB000A04202D3001BDC082243002803D01B0948
:10BEC00001D00909E3E7101C6446002C00D540426C
:10BED00010BC7047002806D003DB0020C043400898
:10BEE00001E08020000607B4024802A14018029039
:10BEF00003BDC046190000000029EBD003B5FFF7D1
:10BF0000A7FF0EBC4243891A1847C0467047C04677
:10BF100010B50023934203D0CC5CC4540133F9E73D
:10BF200010BD031C0A7801311A700133002AF9D1BF
:10BF300070470023C25C0133002AFBD1581E7047B2
:10BF4000F8B5C046F8BC08BC9E467047F8B5C04678
:10BF5000F8BC08BC9E46704743000000002000204B
:10BF60004572726F7220636F6465203D20307825C2
:10BF7000782C6C696E655F6E756D203D2025642C94
:10BF80002066696C65203D2025730D0A00000000C5
:10BF9000328E0100E28C0100AE8C0100948D010014
:10BFA000DA8D01006A8D01002C8D01004170702036
:10BFB0007374617274656421202025730D0A00007A
:10BFC0004D617273680000000F180100737973747B
:10BFD000656D20696E69742025730D0A00000000EC
:10BFE00073746172746564007065726970686572FB
:10BFF000616C20696E69742025730D0A00000000D1
:10C000006D6F746F7220696E69742025730D0A005C
:10C010006865617420696E69742025730D0A0000DB
:10C020006175746F2074656D7020696E6974202568
:10C03000730D0A0054656D706572617475726520C8
:10C040003D202564200D0A0096AB01008EAB010057
:10C0500086AB01007EAB01007AAB010076AB01003C
:10C0600072AB01006AAB010050AB01001BC5D5A546
:10C0700002008286E311CB370000000014AD0100FE
:10C080005EAD010014AD010038AD01002EAD010020
:10C090001CAD010064AD010054AD01006461746128
:10C0A0005F6C6F77203D2025642C20646174615F94
:10C0B00068696768203D2025640D0A0074656D700D
:10C0C00065726174757265203D2025700D0A00004F
:10C0D0004453313842323020696E69742025730D23
:10C0E0000A00000053756363657373004661696CF1
:10C0F0006564000014B30100ECB20100F6B2010067
:10C1000000B301000AB30100D2B201005465726DA0
:10C11000696E616C0000000052545400534547475B
:10C1200045520000303132333435363738394142E8
:04C1300043444546F9
:08C134008CBFFF7F0100000039
:10C13C0000000000000000000000000000000000F3
:10C14C0000000000000000000000000000000000E3
:10C15C0058BF0100000000000000000000000000BB
:10C16C0000000000000000000000000000000000C3
:10C17C0000000000000000000000000000000000B3
:10C18C0000000000000000000000000000000000A3
:0CC19C00FFFFFFFF0201040308070B096E
:040000031000BD5DCF
:00000001FF
